:10000000F6C1000011C200000FC200000DC20000C6
:100010000BC2000009C2000007C2000005C20000B8
:1000200003C2000001C20000FFC10000FDC10000CA
:10003000FBC10000F9C100000C94F6080C941F09E4
:100040000C9448090C9471090C949A090C94C309F6
:100050000C94EC090C94150A0C943E0A0C94670A53
:10006000E3C10000E1C10000DFC10000DDC100000C
:10007000DBC10000D9C10000D7C10000D5C100001C
:10008000D3C10000D1C10000CFC10000CDC100002C
:10009000CBC10000C9C10000C7C10000C5C100003C
:1000A000C3C10000C1C10000BFC10000BDC100004C
:1000B000BBC10000B9C10000B7C100000C942A0CFC
:1000C0000C94530C0C947C0C0C94A50C0C94CE0C3E
:1000D0000C94F70CA9C10000A7C10000A5C1000045
:1000E000A3C10000A1C100009FC100009DC100008C
:1000F0009BC1000099C1000097C1000095C100009C
:1001000093C1000091C100008FC100008DC10000AB
:100110008BC1000089C1000087C1000085C10000BB
:1001200083C1000081C100007FC100007DC10000CB
:100130007BC100000C94900A0C94B90A0C94E20A5A
:100140000C940B0B0C94340B0C945D0B0C94860BE1
:100150000C94AF0B0C94D80B0C94010C65C10000EF
:1001600063C1000061C100005FC100005DC100000B
:100170005BC1000059C1000057C1000055C100001B
:1001800053C1000051C100004FC100004DC100002B
:100190004BC1000049C1000047C1000045C100003B
:1001A00043C1000041C100003FC100003DC100004B
:1001B0003BC1000039C1000037C1000035C100005B
:1001C00033C1000031C100002FC100002DC100006B
:1001D0002BC1000029C1000027C1000025C100007B
:1001E00023C1000021C100001FC100001DC100008B
:1001F0001BC100000C94FE110C94A91223204D6F1A
:1002000064756C6520506F776572204F6E210D0A02
:100210000023204D6F64756C6520506F77657220E8
:100220004F6666210D0A00232053657269616C3A9E
:10023000202530327825303278253032782530321A
:1002400078253032782530327825303278253032B2
:10025000782530327825303278253032780D0A0012
:10026000232056657273696F6E3A2025730D0A005C
:100270002320466C6F74696C6C61207265616479CF
:1002800020746F20736574207361696C2E2E0D0AC3
:10029000002320446F636B3A2025730D0A0023204E
:1002A000557365723A2025730D0A00642025642F6A
:1002B00025730D0A00632025642F25730D0A007530
:1002C0002025642F25732025752C25752C25752C4C
:1002D00025750D0A00752025642F25732025640DD2
:1002E0000A00752025642F25732025642C25642C95
:1002F00025640D0A00752025642F25732025642CA4
:1003000025642C256C750D0A00752025642F257336
:100310002025642C25642C25642C25642C25642C34
:1003200025640D0A00752025642F25732025750D81
:100330000A00752025642F25732025752C25752C22
:1003400025752C25750D0A00752025642F25732031
:10035000256C642C256C750D0A000D0A00202D20DB
:1003600025732028307825303278290023202D204D
:1003700025640023204368616E6E656C733A0D0A34
:100380000023204C6F6F703A2025646D7320282560
:10039000647573292025646670730D0A0023205349
:1003A00052414D3A2025642062797465730D0A002C
:1003B00023205265636F76657265642066726F6D87
:1003C000206F7665722D63757272656E740D0A000A
:1003D00023204F7665722D63757272656E7420648A
:1003E000657465637465642E2E2E0D0A0000112459
:1003F0001FBECFEFCDBFDFE2DEBF13E2A0E0B0E271
:10040000E2E6F7E502C005900D92A830B107D9F7F2
:100410002AE2A8E0B3E201C01D92A836B207E1F7D4
:100420000E9434240C94AF2BEBCDEF92FF920F93EC
:100430001F93CF93DF93809109238F5F80930923CC
:1004400040910A2350E0A0E0B0E2ED0180E090E0AE
:1004500020E067E070E001E010E0FA01082E02C041
:10046000F595E7950A94E2F7E0FF06C0E881F0E031
:10047000E856FE4D308101C030E0E0910923E317DA
:1004800018F03881373950F0FB01E81BF90B78017F
:1004900002C0EE0CFF1CEA95E2F72E290196219688
:1004A00088309105D1F620930406E09108238091CD
:1004B0000923E695EF73F0E0E85AFE4DE081E695FA
:1004C000F0E0E856FE4D968D891720F481E0809388
:1004D000850603C081E080938606809109238733D7
:1004E00020F482E08093850603C082E08093860634
:1004F00080910923873320F484E08093850603C02C
:1005000084E08093860680910923811112C096E4CD
:100510008C918A3418F083508C9301C09C9311966F
:1005200080E2A830B807A1F7809108238F5F8093FD
:100530000823DF91CF911F910F91FF90EF900895C5
:1005400080912024815080932024089580E0089594
:1005500080E008956EE274E280E00C9409258091B9
:100560001F24815080931F2480911F240E940C25FA
:1005700010921E2408951092202410922C24109280
:100580002D2481EA8093222480E2809323241092F8
:10059000242410922524109226241092272482E0ED
:1005A00090E0809328249093292410922A2410927A
:1005B0002B2480E092ECA1E0B0E080932E24909375
:1005C0002F24A0933024B09331241092322410921F
:1005D000332488E0809334246EE274E280E00E9449
:1005E000092580E00E940A25882329F09091202483
:1005F0009F5F909320240895FF920F931F93CF93B2
:10060000DF9380910E2381118BC00E949710C091BF
:100610000F23D09110238823A9F00E94A410C8179B
:10062000D90709F47DC0DFB7F894C0911123EC2FEE
:10063000F0E0EE0FFF1FEE5EFC4D80819181892B73
:1006400029F503C00E949F10EACF80910B2390915F
:100650000C23019680930B2390930C230E949710F8
:10066000811109C080910B2390910C238436910550
:1006700010F4DFBF55C00E949710882339F0809195
:100680000B2390910C238032934098F310920B230C
:1006900010920C2380910D23811106C081E0C111BD
:1006A00080E08093112304C081E0C11180E0C82F55
:1006B00081E080930E23DFBFD0E08E01000F111F79
:1006C000F801EE5EFC4DFF24F3948081918180342B
:1006D000910531F4F12C10920F23109210230DC0CC
:1006E0000E949710882319F00E94A41002C00E9453
:1006F0009F1080930F2390931023F801EE5EFC4D22
:1007000020813181AE0186E0440F551F8A95E1F7C3
:100710004A5E5C4D07E913E06F2D81E80E942811C5
:10072000DF91CF911F910F91FF90089565CF8111B7
:1007300014C02091112381E090E0222311F080E089
:1007400090E0880F991FFC01EE5EFC4D1082118233
:1007500010920D2310920E234FCF089590913C27B5
:10076000892F807697FF0EC08032F1F580913D276A
:100770008132D1F5809142279091432787309105AE
:1007800099F526C0803281F580913D27803299F01D
:10079000823251F560913E27617080E00E940D2504
:1007A00060913E2770913F2776956795617080E054
:1007B0000E940E2517C080914227909143278730D1
:1007C000910591F42AEA32E0209348273093492793
:1007D0002EE234E220934427309345278093462726
:1007E0009093472781E0089580E008952FB7F8940B
:1007F0004091972350919823E0919923F0E0EE0FD8
:10080000FF1FE656FC4D80819181841B950B2FBF05
:100810000895ECDF21E0892B09F420E0822F089570
:100820000F931F93CF93DF938FB7F8942091992361
:1008300090919623911110C0609197237091982305
:10084000C22FD0E0FE01EE0FFF1FE656FC4D4081A7
:1008500051816417750718F48FBF80E024C010928F
:1008600097231092982391E0211190E0909399237F
:1008700091E0909396238FBF80E0CBDF882319F01F
:1008800080E00E94A525AE0186E0440F551F8A95A1
:10089000E1F742565C4D08E814E020E430E061E006
:1008A00082E00E942811DF91CF911F910F9108954E
:1008B00010921F2410920E2310920D2310921123D8
:1008C00010921223109213231092142310921523C6
:1008D00010920F23109210238FDE10929623109205
:1008E000992310929A2310929B231092972310928F
:1008F000982396DF882359F090911F249F5F90934F
:100900001F2490911F24913011F490931E24089578
:100910000F931F93811126C08091992321E08111AB
:1009200020E030E06115710589F4842F96E0220FF4
:10093000331F9A95E1F7A90142565C4D08E814E08F
:1009400020E430E061E00E9428110CC0220F331F28
:10095000F901E656FC4D60837183109296231F9136
:100960000F915ECF1F910F91089580E052CF1F939A
:10097000CF93DF9311E080913424893009F010E0A7
:10098000C0E0D0E09FB7F89420919723309198234E
:10099000809199239FBF90E0FC01EE0FFF1FE65668
:1009A000FC4D408151812417350730F080911E2481
:1009B0008111E8CF90E01AC0FC0196E0EE0FFF1F16
:1009C0009A95E1F7E20FF31FE256FC4D8081C82BA8
:1009D0002F5F3F4F209397233093982321DF1123DC
:1009E00021F0DC2FCC2710E0CDCFCE01DF91CF91CD
:1009F0001F91089580E0BBCF4FB7F89490911123D9
:100A0000E92FF0E0EE0FFF1FEE5EFC4D20813181FB
:100A10002034310589F480910E2381110DC080911D
:100A20000D23811109C081E080930D23911180E095
:100A30008093112320E030E04FBF80E490E0821BE0
:100A4000930B0895D9DF21E0892B09F420E0822F50
:100A5000089580E0F7CF1F93CF93DF9300D0CDB7F9
:100A6000DEB711E080913424893009F010E080E095
:100A700069837A83E7DF69817A81811107C0809178
:100A80001E248111F4CF80E090E026C02FB7F894A7
:100A9000E0911123F0E0DF01AA0FBB1FAE5EBC4D59
:100AA0008D919C911197AC014F5F5F4F4D935C937B
:100AB00036E0EE0FFF1F3A95E1F78E0F9F1FFC0106
:100AC000EA5EFC4D60832FBF112321F0672F770F63
:100AD000770BCCCF81E090E00F900F90DF91CF911A
:100AE0001F910895BC0180E0B6CF80913E278F779B
:100AF0000C94991090913D24911102C080E00895CA
:100B0000E0913B24F0913C240190F081E02D948110
:100B10008917A0F7E0933924F0933A242281338196
:100B20002E0F3F1FE217F30798F49181943061F480
:100B30009281891309C09381691306C0E093392417
:100B4000F0933A2481E008959081E90FF11DEACFF6
:100B5000E0933924F0933A24D1CFE0913B24F091F3
:100B60003C240190F081E02D228133812E0F3F1F24
:100B7000FC014081E40FF11DE217F30748F4818185
:100B8000843031F0853039F08081E80FF11DF4CFE9
:100B900080E090E00895CF0108951F93CF93DF93F5
:100BA000182FA8DF882341F1C0913924D0913A242D
:100BB000CE01D3DFEC01892B49F04C815D816B8143
:100BC0008A810E94AE108111F3CF16C0E0913B24C0
:100BD000F0913C2492818381E92FF82FE10FF11DE0
:100BE000E10FF11D0190F081E02D0190F081E02DE9
:100BF000DF91CF911F91099480E0DF91CF911F91F8
:100C00000895EF92FF921F93CF93DF93C82F60E078
:100C100071DF811102C010E02DC0E0913B24F09102
:100C20003C2492818381E92FF82FEC0FF11DEC0F0A
:100C3000F11DE080F180D7011696ED91FC91179798
:100C40000995682F8C2F56DF182F882321F3C09128
:100C50003924D0913A24CE0180DFEC01892B21F098
:100C60008A810E94E511F7CFD7011296ED91FC9190
:100C700013970995812FDF91CF911F91FF90EF90EE
:100C800008950C942310CF9380913D24811108C0C6
:100C900010923D2410923E2410923F24CF9108954B
:100CA000C0E0E0913B24F0913C240190F081E02DE4
:100CB0008481C81768F78C2FA4DFCF5FF2CFCF9362
:100CC00080913D248823F1F0C0E0E0913B24F09135
:100CD0003C24A081B18114968C91C81798F492811C
:100CE0008381E92FF82FEC0FF11DEC0FF11D01901E
:100CF000F081E02D0084F185E02D309709F0099511
:100D0000CF5FE3CFCF910895EF92FF920F931F93A0
:100D1000CF93DF931F92CDB7DEB710924627109284
:100D20004727109248271092492710924A2710927D
:100D30004B2780913C2787FF07C0209142273091A5
:100D40004327232B09F449C2982F907609F0D4C188
:100D500087FF01C12091422730914327211531059A
:100D600009F4CAC18F7109F0A2C080913D27863075
:100D700071F0883009F490C08111BEC12230310574
:100D800009F0BAC162E070E08EE394E28DC0809118
:100D90003E2790913F27292F332722303105A1F09C
:100DA00064F42130310509F0A7C18091F4209091BD
:100DB000F520DC016C9170E05CC02330310591F1CD
:100DC0002F30310511F198C1E091F420F091F52018
:100DD0002189821708F090C19927880F991F880FE1
:100DE000991FE091F620F091F720E80FF91F80811C
:100DF0009181FC01628173810E94A710E0914427D8
:100E0000F091452782E0818336C08091F82090914F
:100E1000F920009709F470C1DC0112966D917C9164
:100E2000139727C099278130910569F038F0029710
:100E300009F062C16DE088E390E208C064E070E010
:100E400084E590E216C06CE086E490E2282FAEE1E3
:100E5000B0E2FC01819190E08D939D938E2F821BD7
:100E60008617C0F3660F6E5F60931C2070E08CE104
:100E700090E20E94A71080914227909143272091F1
:100E80004627309147278217930708F0A4C1809323
:100E90004627909347279FC12130310509F02CC187
:100EA00061E070E08DE394E20E94A71094C181306C
:100EB000C9F580913D278A3009F01EC121303105E6
:100EC00009F01AC180913D24882309F415C1E090EE
:100ED0004027F090412700913B2410913C24D801F9
:100EE000ED91FC918481E81608F006C160E08E2D3A
:100EF00001DE882309F400C1FF24EE0CFF1CF80179
:100F0000828193818E0D9F1DDC01ED91FC91068005
:100F1000F781E02D09958093382461E070E088E343
:100F200094E2C2CF823009F0E7C080913D27811161
:100F3000E3C02230310509F0DFC0809140270E94D4
:100F4000081190E0809336249093372462E070E09B
:100F500086E394E2A9CF8F7109F07EC080913D278E
:100F6000833009F4C9C018F48130A1F0C5C08530C0
:100F700019F0893039F1C0C0809142279091432700
:100F8000892B09F0B9C085E795E0809348279093B5
:100F9000492721C18091422790914327892B09F04D
:100FA000ABC080913E2790913F27019709F0A4C0E4
:100FB00080913E2490913F248D7F80933E24909396
:100FC0003F2409C18091422790914327892B09F042
:100FD00093C00E949C10882309F48EC020913E2764
:100FE00030913F273327E091F420F091F52081895B
:100FF00090E08217930708F47FC045DE80913E277A
:1010000090913F2780933D24882309F4E4C09927D9
:101010008150904C880F991F880F991F2091F620BE
:101020003091F720820F931F80933B2490933C24B0
:1010300010E0E0913B24F0913C240190F081E02D00
:101040008481181708F0C7C060E0812FA6DD8823CF
:1010500009F452C01F5FEDCF8130F1F480913D273C
:101060008B3009F049C08091422790914327892B0A
:1010700009F042C080913D24882309F43DC01091BD
:10108000402760913E27812F6983BBDD69818823DA
:1010900099F1812F82DD2EC0823071F580913D273C
:1010A000813019F0833091F027C0809142279091D0
:1010B0004327892B09F580913E2790913F27892B63
:1010C000D9F4809140270E940F1114C080914227CB
:1010D00090914327892B81F480913E2790913F275F
:1010E000892B51F4809140270E94B51180914027AF
:1010F0000E94EE1181116FC080913C278F71813069
:10110000B9F580913D24882399F1E0904027F09033
:10111000412700913B2410913C24D801ED91FC9192
:101120008481E81628F560E08E2DE4DC882301F147
:10113000F701FF27EE0FFF1FD80112968D919C91AA
:101140001397E80FF91F00811181D8011696ED91D0
:10115000FC9117970995682F8E2DCCDC882341F0E0
:10116000D8011496ED91FC9115970995811133C022
:1011700080913C278F71823081F580913D248823B6
:1011800061F1F12CE0913B24F0913C24A081B181EC
:1011900014968C91F81608F592818381E92FF82F27
:1011A000EF0DF11DEF0DF11D00811181D801169693
:1011B000ED91FC9117970995682F8F2D9BDC882363
:1011C00061F0D8011496ED91FC9115970995811164
:1011D00002C0F394D7CF81E001C080E00F90DF918F
:1011E000CF911F910F91FF90EF9008951F920F9252
:1011F0000FB60F9211242F933F934F935F936F93EA
:101200007F938F939F93AF93BF93EF93FF93E0915F
:101210007224F0917324309709F00995FF91EF91B2
:10122000BF91AF919F918F917F916F915F914F91FE
:101230003F912F910F900FBE0F901F9018951F9206
:101240000F920FB60F9211242F933F934F935F93FA
:101250006F937F938F939F93AF93BF93EF93FF937E
:10126000E0917024F0917124309709F00995FF9175
:10127000EF91BF91AF919F918F917F916F915F910E
:101280004F913F912F910F900FBE0F901F90189587
:101290001F920F920FB60F9211242F933F934F93EB
:1012A0005F936F937F938F939F93AF93BF93EF93CE
:1012B000FF93E0916E24F0916F24309709F0099527
:1012C000FF91EF91BF91AF919F918F917F916F911E
:1012D0005F914F913F912F910F900FBE0F901F90F4
:1012E00018951F920F920FB60F9211242F933F93D0
:1012F0004F935F936F937F938F939F93AF93BF931E
:10130000EF93FF93E0916C24F0916D24309709F0F6
:101310000995FF91EF91BF91AF919F918F917F912F
:101320006F915F914F913F912F910F900FBE0F9052
:101330001F9018951F920F920FB60F9211242F93A2
:101340003F934F935F936F937F938F939F93AF934D
:10135000BF93EF93FF93E0916A24F0916B24309751
:1013600009F00995FF91EF91BF91AF919F918F91F6
:101370007F916F915F914F913F912F910F900FBE91
:101380000F901F9018951F920F920FB60F92112475
:101390002F933F934F935F936F937F938F939F937D
:1013A000AF93BF93EF93FF93E0916824F09169248A
:1013B000309709F00995FF91EF91BF91AF919F91FF
:1013C0008F917F916F915F914F913F912F910F90EE
:1013D0000FBE0F901F9018951F920F920FB60F928D
:1013E00011242F933F934F935F936F937F938F932A
:1013F0009F93AF93BF93EF93FF93E0916624F09197
:101400006724309709F00995FF91EF91BF91AF9153
:101410009F918F917F916F915F914F913F912F910C
:101420000F900FBE0F901F9018951F920F920FB63E
:101430000F9211242F933F934F935F936F937F935A
:101440008F939F93AF93BF93EF93FF93E0916424A7
:10145000F0916524309709F00995FF91EF91BF91C4
:10146000AF919F918F917F916F915F914F913F913C
:101470002F910F900FBE0F901F9018951F920F92F3
:101480000FB60F9211242F933F934F935F936F9357
:101490007F938F939F93AF93BF93EF93FF93E091CD
:1014A0006224F0916324309709F00995FF91EF9140
:1014B000BF91AF919F918F917F916F915F914F916C
:1014C0003F912F910F900FBE0F901F9018951F9274
:1014D0000F920FB60F9211242F933F934F935F9368
:1014E0006F937F938F939F93AF93BF93EF93FF93EC
:1014F000E0916024F0916124309709F00995FF9103
:10150000EF91BF91AF919F918F917F916F915F917B
:101510004F913F912F910F900FBE0F901F901895F4
:101520001F920F920FB60F9211242F933F934F9358
:101530005F936F937F938F939F93AF93BF93EF933B
:10154000FF93E0915E24F0915F24309709F00995B4
:10155000FF91EF91BF91AF919F918F917F916F918B
:101560005F914F913F912F910F900FBE0F901F9061
:1015700018951F920F920FB60F9211242F933F933D
:101580004F935F936F937F938F939F93AF93BF938B
:10159000EF93FF93E0915C24F0915D24309709F084
:1015A0000995FF91EF91BF91AF919F918F917F919D
:1015B0006F915F914F913F912F910F900FBE0F90C0
:1015C0001F9018951F920F920FB60F9211242F9310
:1015D0003F934F935F936F937F938F939F93AF93BB
:1015E000BF93EF93FF93E0915A24F0915B243097DF
:1015F00009F00995FF91EF91BF91AF919F918F9164
:101600007F916F915F914F913F912F910F900FBEFE
:101610000F901F9018951F920F920FB60F921124E2
:101620002F933F934F935F936F937F938F939F93EA
:10163000AF93BF93EF93FF93E0915824F091592417
:10164000309709F00995FF91EF91BF91AF919F916C
:101650008F917F916F915F914F913F912F910F905B
:101660000FBE0F901F9018951F920F920FB60F92FA
:1016700011242F933F934F935F936F937F938F9397
:101680009F93AF93BF93EF93FF93E0915624F09114
:101690005724309709F00995FF91EF91BF91AF91D1
:1016A0009F918F917F916F915F914F913F912F917A
:1016B0000F900FBE0F901F9018951F920F920FB6AC
:1016C0000F9211242F933F934F935F936F937F93C8
:1016D0008F939F93AF93BF93EF93FF93E091542425
:1016E000F0915524309709F00995FF91EF91BF9142
:1016F000AF919F918F917F916F915F914F913F91AA
:101700002F910F900FBE0F901F9018951F920F9260
:101710000FB60F9211242F933F934F935F936F93C4
:101720007F938F939F93AF93BF93EF93FF93E0913A
:101730005224F0915324309709F00995FF91EF91CD
:10174000BF91AF919F918F917F916F915F914F91D9
:101750003F912F910F900FBE0F901F9018951F92E1
:101760000F920FB60F9211242F933F934F935F93D5
:101770006F937F938F939F93AF93BF93EF93FF9359
:10178000E0915024F0915124309709F00995FF9190
:10179000EF91BF91AF919F918F917F916F915F91E9
:1017A0004F913F912F910F900FBE0F901F90189562
:1017B0001F920F920FB60F9211242F933F934F93C6
:1017C0005F936F937F938F939F93AF93BF93EF93A9
:1017D000FF93E0914E24F0914F24309709F0099542
:1017E000FF91EF91BF91AF919F918F917F916F91F9
:1017F0005F914F913F912F910F900FBE0F901F90CF
:1018000018951F920F920FB60F9211242F933F93AA
:101810004F935F936F937F938F939F93AF93BF93F8
:10182000EF93FF93E0914C24F0914D24309709F011
:101830000995FF91EF91BF91AF919F918F917F910A
:101840006F915F914F913F912F910F900FBE0F902D
:101850001F9018951F920F920FB60F9211242F937D
:101860003F934F935F936F937F938F939F93AF9328
:10187000BF93EF93FF93E0914A24F0914B2430976C
:1018800009F00995FF91EF91BF91AF919F918F91D1
:101890007F916F915F914F913F912F910F900FBE6C
:1018A0000F901F9018951F920F920FB60F92112450
:1018B0002F933F934F935F936F937F938F939F9358
:1018C000AF93BF93EF93FF93E0914824F0914924A5
:1018D000309709F00995FF91EF91BF91AF919F91DA
:1018E0008F917F916F915F914F913F912F910F90C9
:1018F0000FBE0F901F9018951F920F920FB60F9268
:1019000011242F933F934F935F936F937F938F9304
:101910009F93AF93BF93EF93FF93E0914624F09191
:101920004724309709F00995FF91EF91BF91AF914E
:101930009F918F917F916F915F914F913F912F91E7
:101940000F900FBE0F901F9018951F920F920FB619
:101950000F9211242F933F934F935F936F937F9335
:101960008F939F93AF93BF93EF93FF93E0914424A2
:10197000F0914524309709F00995FF91EF91BF91BF
:10198000AF919F918F917F916F915F914F913F9117
:101990002F910F900FBE0F901F9018951F920F92CE
:1019A0000FB60F9211242F933F934F935F936F9332
:1019B0007F938F939F93AF93BF93EF93FF93E091A8
:1019C0004224F0914324309709F00995FF91EF915B
:1019D000BF91AF919F918F917F916F915F914F9147
:1019E0003F912F910F900FBE0F901F9018951F924F
:1019F0000F920FB60F9211242F933F934F935F9343
:101A00006F937F938F939F93AF93BF93EF93FF93C6
:101A1000E0914024F0914124309709F00995FF911D
:101A2000EF91BF91AF919F918F917F916F915F9156
:101A30004F913F912F910F900FBE0F901F901895CF
:101A4000CF93CFB7F894811528E0920711F461E0A5
:101A500005C0803428E0920739F462E083E00E94F8
:101A6000B72364E083E01AC0811529E0920711F4DE
:101A700061E005C0803429E0920739F462E084E037
:101A80000E94B72364E084E009C081159A4081F484
:101A900061E085E00E94B72364E085E00E94B723FF
:101AA0009FB7F89480915F2A8F5F80935F2A9FBFD2
:101AB000CFBFCF910895811528E0920729F4609354
:101AC0007224709373240895803428E0920729F4D7
:101AD00060936624709367240895811529E0920726
:101AE00029F460935E2470935F240895803429E084
:101AF000920729F46093522470935324089581151A
:101B00009A4021F460934A2470934B240895282F1F
:101B10002F70082E000C990B392F331F3327331FDA
:101B2000832F90E0820F911D820F911D23E0880F7B
:101B3000991F2A95E1F784599A4D08950F93E8EC7F
:101B4000F4E080818F7D808380818F7D8083E4E7D6
:101B5000F5E202E00593109276251092772500E2D7
:101B6000069300E40693ECE6F5E200E2069300E457
:101B70000693ECE3F7E2148615861686178612861E
:101B8000138610925D250F9108950F9385E0809341
:101B90005D25E5E7F5E204E00593EDE6F5E204E016
:101BA00005930F9108950F9383E080935D25109224
:101BB000762510927725E4E7F5E202E006930F918F
:101BC0000895E0914827F0914927309709F009944A
:101BD0000895282F2F70082E000C990B392F331FD2
:101BE0003327331F832F90E0820F911D820F911DA9
:101BF000029749E0489F9001499F300D1124C90187
:101C00008B509B4D08959091A025811108C0992378
:101C100081F02FB7F89490915F2A915007C09111ED
:101C200008C02FB7F89490915F2A9F5F90935F2A26
:101C30002FBF8093A02508958F929F92AF92BF925D
:101C4000DF92EF92FF920F931F93CF93DF93D82EE3
:101C5000C0DFEC018D2D5BDF7C01DC011196EC9186
:101C6000E770E150E73040F4F0E0EE0FFF1FE85678
:101C7000FD4D0081118102C008E010E0ED81FE8180
:101C80002B813C814881D701D7FE4AC016968D91A1
:101C90009C9117978E0F9F1F8D839E8382179307AA
:101CA00071F1281B390B2115B4E03B0740F02FEFF1
:101CB00033E0C901B8010E94AC26281B390B41FF53
:101CC0000BC0C901B8010E94AC26AC0191E0452BC4
:101CD00009F090E0892F01C080E0988180FB91F9A4
:101CE0009883F701168217822283338329813A81F0
:101CF0008D819E81820F931F848395830EC041FF47
:101D000074C04D7F4883D70116961D921C92179779
:101D100012961D921C921397F70102E006937EC063
:101D20001296AD90BC90139742FF12C089809A80A2
:101D3000C901B8010E94AC26B0E4DB9EB0011124B9
:101D40006B5C7B4DAC01C4018E0F9F1F0E948828E5
:101D50008D819E818A0D9B1D8D839E832B813C816D
:101D60002817390710F42D833E83F7018681978168
:101D7000A816B906D1F58D819E8182179307A9F126
:101D8000281B390B2115F4E03F0710F02FEF33E04B
:101D9000C901B8010E94AC26281B390BD701129645
:101DA0001D921C9213972017310778F48881846064
:101DB0008883B0E4DB9EC00111248B5C9B4DF7014E
:101DC0008483958306831783A7CF49815A818D81A8
:101DD0009E81840F951FD70114968D939C93159720
:101DE00016962D933C93179797CF888180FF16C046
:101DF0008E7F8883EF81F885309781F06D817E81B9
:101E00004D2D80E0DF91CF911F910F91FF90EF90CA
:101E1000DF90BF90AF909F908F900994DF91CF910A
:101E20001F910F91FF90EF90DF90BF90AF909F9028
:101E30008F9008950F93CF93DF9380915D2583302A
:101E400029F4BFDEDF91CF910F9178CE20915925F3
:101E500030915A25C0914627D0914727C21BD30BFA
:101E600061F580915B2590915C25820F931F809393
:101E70005B2590935C2520914227309143272817BA
:101E8000390721F080917424882331F084E0809315
:101E90005D25ECE6F5E236C0E0914A27F0914B274C
:101EA000309799F00995882381F010925925109266
:101EB0005A25C0914627D0914727C034D10528F034
:101EC00010927424C0E4D0E003C081E080937424B5
:101ED000C0937625D09377258091592590915A25E6
:101EE0002091442730914527280F391F20937825CA
:101EF00030937925C80FD91FC0935925D0935A25FF
:101F0000E4E7F5E202E00693DF91CF910F910895A7
:101F10000F93CF93DF931F92CDB7DEB78091CC04A0
:101F200080FF66C021E02093CC048CE695E2FC01A2
:101F300000E80693E4E7F5E200E806932093CA047C
:101F4000FC0100E1069380915D25882329F08350F0
:101F5000823008F436DEF2DD80916E2590916F2597
:101F6000089709F047C088E0E9E1F5E2ACE3B7E2A1
:101F700001900D928A95E1F78091C8048062809368
:101F8000C8048091C80480628093C8040E948406BB
:101F9000811102C0FADD2EC090913C2797FF0EC040
:101FA00010925B2510925C251092592510925A25AB
:101FB00092E090935D2589833DDF08C02091422700
:101FC00030914327232B21F48983EDDD898113C0D0
:101FD00010925B2510925C251092592510925A257B
:101FE00091E090935D25ECE6F5E202E0069303C0F4
:101FF00080E001C081E00F90DF91CF910F910895B3
:10200000CF93CFB7F89481E0FEDDEAECF4E080E412
:10201000808380E28083E1ECF4E0808181608083D2
:10202000A9ECB4E08C9182608C93E8ECF4E08081C0
:10203000806480838C9181608C93808180688083B0
:10204000CFBFCF910895CF931092600080E30E949C
:10205000C3238091C00480648093C00481E0809396
:102060006000CFB7F89410926D25109275251092EC
:102070007D251092852510928D25109295258091B1
:10208000F5248E7F8093F5248091FE248E7F8093AB
:10209000FE24809107258E7F80930725809110254F
:1020A0008E7F809310256AE170E082E00E940E240A
:1020B0008F3F09F48FE18093FA046BE170E082E0D6
:1020C0000E940E248F3F09F48FE18093FB048091DE
:1020D000C00482608093C0048091C00480688093B3
:1020E000C0048091C00480618093C0048CE695E2B6
:1020F0008093C6049093C7048091C004806280934B
:10210000C0048FEF8093C5048091C80481608093E0
:10211000C8041092A0259FB7F8948091632A8F5F1E
:102120008093632A9FBF6CDFCFBFCF91089580E07B
:1021300008958093C30408958091C3040895809105
:102140009C2590919D25089580E090E00895ECE312
:10215000F7E2808791876287738708950F931F93B3
:10216000CF93DF931F92CDB7DEB78A016983CFDCAF
:10217000FC018181807C6981811141C06370613083
:1021800019F020F090E803C090EC01C090E4003812
:102190001105E9F058F400321105A9F000341105D9
:1021A000A1F000311105C9F481E018C0011582E0E9
:1021B000180779F00F3F83E0180769F00115114007
:1021C00061F485E00BC082E009C083E007C084E0D1
:1021D00005C086E003C087E001C080E0118226E0F0
:1021E0002083892B81838181807C803C21F48181C3
:1021F0008770873031F081818062818302C080E006
:1022000001C081E00F90DF91CF911F910F91089550
:102210007EDCFC01818182FB882780F90895CF93C1
:10222000C82F75DCFC01818182FF0FC091819B7FEB
:1022300091838C2FCEDCFC01908190FF06C09E7FA5
:1022400090830780F085E02D099581E0CF91089576
:102250008F929F92AF92BF92DF92EF92FF920F9375
:102260001F93CF93DF931F92CDB7DEB7D82E5A01BD
:1022700079016983AEDC4C018D2D49DC9C01DC01C8
:1022800011968C911197807C6981882309F45FC035
:1022900011968C911197807C803C21F011968C9145
:1022A00082FD55C09FB7F894F401808180FF02C081
:1022B0009FBF4DC0816080839FBFF401A182B28225
:1022C000E382F482158216820783108791E0611100
:1022D00004C0E114F10409F090E0D4018C9190FB6A
:1022E00081F98B7F8C93D7FE04C0F9011682178287
:1022F0002AC0D90111968C911197807C803CD1F431
:102300001196EC91E770E150E73040F4F0E0EE0F09
:10231000FF1FE856FD4D6081718102C068E070E0EA
:10232000C7010E94AC26892B29F0F40180818E7FA1
:1023300080830DC0D90112961D921C921397169698
:102340001D921C9217978D2D77DC81E001C080E0F3
:102350000F90DF91CF911F910F91FF90EF90DF9041
:10236000BF90AF909F908F900895EF92FF920F9340
:10237000CF93C82FCCDB7C018C2F2BDCDC01F70149
:1023800002E005939C9190FF1BC09E7F9C93179643
:10239000ED91FC911897309799F0D701C7FF05C0D0
:1023A00016966D917C91179704C012966D917C9151
:1023B00013974C2F81E0CF910F91FF90EF900994EC
:1023C000CF910F91FF90EF900895CF93C82FCDDF5D
:1023D0008C2F9DDBFC011182CF9108950F93CF9339
:1023E000C82F95DBFC0191819460918301E00693F5
:1023F0008C2FBBDF81E0CF910F9108951F920F9238
:102400000FB60F9211240F932F933F934F935F9327
:102410006F937F938F939F93AF93BF93EF93FF93AC
:102420008091CB0487FF06C080E88093CA040E9495
:102430005F067DC08091CB0482FF18C084E080934A
:10244000CA048091742586FF72C08091CC0481FDFE
:102450006EC05EDD81116BC080915D25813011F40D
:10246000A2DB65C0843009F062C021C08091CB043A
:1024700081FF26C082E08093CA0480916C2586FF8C
:1024800056C08091CC0481FD52C042DD81114FC005
:1024900080915D25823041F484E080935D25ECE6F7
:1024A000F5E202E0069343C0833009F040C0E5E75F
:1024B000F5E204E00593EDE6F5E204E0059337C0AC
:1024C0008091CB0484FF21C080E18093CA0481E025
:1024D0004CDF81E84ADF0E9443061092C304109249
:1024E0006D2596E090936C2583E480936D25109282
:1024F0007525909374258093752589E195E28093E5
:102500007025909371251ADB12C08091CB0486FF51
:1025100005C080E48093CA0480E008C08091CB04A9
:1025200085FF05C080E28093CA0481E06CDBFF91E7
:10253000EF91BF91AF919F918F917F916F915F913B
:102540004F913F912F910F910F900FBE0F901F90C1
:1025500018951F920F920FB60F9211240F931F938D
:102560002F933F934F935F936F937F938F939F939B
:10257000AF93BF93CF93DF93EF93FF938091CC04FE
:1025800081FF1AC082E08093CC048091C5048195BC
:10259000880FECE6F5E2E81BF109208131812C5629
:1025A000354283E0369527958A95E1F7822F869507
:1025B00020FD06C0C0E005C0ABDC882319F387C04E
:1025C000C0E8C80F8C2FA3DAFC01208125FF7FC053
:1025D00000E20693C11175C080915D25843019F425
:1025E000F0DAACDA74C000916E2510916F258091FD
:1025F000462790914727C0915925D0915A259E0191
:10260000200F311F8217930718F48C010C1B1D0B30
:102610008091442790914527A80169E175E28C0FCC
:102620009D1F0E948828C00FD11FC0935925D093A9
:102630005A250034110569F480915B2590915C2541
:102640008C0F9D1F209142273091432782179307BB
:1026500088F0C0934627D0934727E0914A27F0910E
:102660004B27309729F00995811102C08EDA2FC0CF
:102670009ADA2DC080914627909147278C179D07A5
:10268000D9F4E0914A27F0914B27309779F30995D7
:10269000882361F320915B2530915C258091592539
:1026A00090915A25820F931F80935B2590935C2510
:1026B0001092592510925A25ECE6F5E202E00693B5
:1026C00006C0C03811F4B6DB02C08C2FB5DAFF911A
:1026D000EF91DF91CF91BF91AF919F918F917F91BA
:1026E0006F915F914F913F912F911F910F910F909B
:1026F0000FBE0F901F9018954BE150E060E070E026
:102700008CE497E20C94642B4BE150E060E070E0C5
:102710008CE497E20E94592B6CE477E286EA92E21D
:102720000E949128892B99F066EA72E28CE497E284
:102730000E949A286BEA72E28EE597E20E949A283C
:102740006BEA72E285E597E20E949A28D5CF089558
:10275000EF920F939EE3989FF0011124E959F84DF1
:10276000DF011D929A95E9F76083418352832383A9
:1027700034830583E6820F91EF900895FC01662370
:10278000D9F0613089F5A781B08512968C911297A6
:102790008F9311968C918F9380811F928F9385EBED
:1027A00092E09F938F930E9469220F900F900F9059
:1027B0000F900F900F900895A781B08512968C917D
:1027C00012978F9311968C918F9380811F928F9384
:1027D0008BEA92E09F938F930E9469220F900F9053
:1027E0000F900F900F900F900895EF920F9383E04A
:1027F000E82E02E020E636E040E656E068E087E0BA
:10280000A7DFEE24E39400E020E636E040E656E061
:1028100067E086E09DDF97E0E92E06E020E436E001
:1028200040E456E066E085E093DF25E0E22E04E038
:1028300020E436E040E456E065E084E089DF33E000
:10284000E32E02E020E436E040E456E064E083E07A
:102850007FDFEE24E39400E020E436E040E456E03D
:1028600063E082E075DF43E0E42E02E020E236E040
:1028700040E256E062E081E06BDFEE24E39400E0AA
:1028800020E236E040E256E061E080E061DF99D38B
:10289000DC01EC91F0E0EE0FFF1FE95AF64D80836A
:1028A000918370D7DC01EC91F0E0EE0FFF1FE95A45
:1028B000F64D80839183D3D5DC01EC91F0E0EE0FEF
:1028C000FF1FE95AF64D80839183FCD4DC01EC9123
:1028D000F0E0EE0FFF1FE95AF64D80839183C7D7D2
:1028E000DC01EC91F0E0EE0FFF1FE95AF64D80831A
:1028F0009183F5D2DC01EC91F0E0EE0FFF1FE95A75
:10290000F64D80839183A7D4DC01EC91F0E0EE0FCB
:10291000FF1FE95AF64D80839183C7D6DC01EC9105
:10292000F0E0EE0FFF1FE95AF64D808391830E947D
:10293000FB1CDC01EC91F0E0EE0FFF1FE95AF64DB5
:102940008083918362D5DC01EC91F0E0EE0FFF1FF4
:10295000E95AF64D808391830E943B20DC01EC9183
:10296000F0E0EE0FFF1FE95AF64D808391838CD380
:10297000DC01EC91F0E0EE0FFF1FE95AF64D808389
:1029800091830F91EF900895FC014381548126813A
:102990006581818192810C9488210F931F93CF933D
:1029A000DF9307E619E2F801C191D1918F012097D9
:1029B00029F0EF81F8850995811107C0FAE2073403
:1029C0001F0789F780E090E001C0CE01DF91CF9131
:1029D0001F910F910895DF92EF92FF920F931F9333
:1029E000CF93DF93C7E6D7E200E010E0EE24E39454
:1029F000F12CDD24DA948F819885892B59F5CE014D
:102A0000C3DFCBDF8F839887892B21F161E0CE0173
:102A1000B5DEEF81F8850580F681E02D309711F065
:102A2000CE01099520910A23C701002E01C0880F0D
:102A30000A94EAF7822B80930A23EF81F8850184B8
:102A4000F285E02D309711F0CE010995F801E050A4
:102A5000F04ED0820F5F1F4FEE960830110559F6E9
:102A6000DF91CF911F910F91FF90EF90DF9008952C
:102A70004F925F926F927F92AF92BF92CF92DF920E
:102A8000EF92FF920F931F93CF93DF932B013C01A3
:102A90000091A125A02EB12C8EE3089F8001112466
:102AA000E801C959D84DCE016FDFEF80F884E114F9
:102AB000F10409F485C0D7011796ED91FC911897A0
:102AC0000995811127C0EF81F88582818F938181DB
:102AD0008F9388811F928F938BEA92E09F938F93BD
:102AE0000E94692281E090E00090A12502C0880F39
:102AF000991F0A94E2F7809590910A238923809385
:102B00000A231F8218860F900F900F900F900F903E
:102B10000F9056C0D7011B96ED91FC911C973097F2
:102B2000B1F06E01BDE3CB0ED11CD6014C91442314
:102B300071F0B8016458784DCE010995F601108204
:102B4000E091A125F0E0E050F04E8FEF8083D701B7
:102B500019968D919C911A97892B91F18EE38A9DFC
:102B6000F0018B9DF00D1124E959F84D818992896E
:102B7000A389B489B301A201481B590B6A0B7B0BD3
:102B8000D70113968D919C911497A0E0B0E048175F
:102B900059076A077B07A0F0418A528A638A748AC0
:102BA000D7011996ED91FC911A97CE0109958823CA
:102BB00039F0E091A125F0E0E050F04E8FEF8083F6
:102BC0008091A1258F5F883018F48093A12502C0E1
:102BD0001092A125DF91CF911F910F91FF90EF905F
:102BE000DF90CF90BF90AF907F906F905F904F90AD
:102BF00008958EE597E29F938F938EE992E09F93DD
:102C00008F930E94692285E597E29F938F9381E9D4
:102C100092E09F938F930E9469228DB79EB708968A
:102C20008DBF9EBF08950F931F93CF93DF93CDB7B2
:102C3000DEB72D97CDBFDEBF8C879D87FC0120813D
:102C4000253689F407E617E2F80187819085892BFC
:102C500019F061E0C80192DD025C1F4FF9E207350F
:102C60001F0791F7A9C0263709F03FC080E792E01F
:102C70009F938F930E94692286EA92E29F938F939B
:102C800080E692E09F938F930E946922CE01019685
:102C90000E94E7238F811F928F938E811F928F93C3
:102CA0008D811F928F938C811F928F938B811F92A6
:102CB0008F938A811F928F9389811F928F938B8527
:102CC0001F928F938A851F928F9389851F928F936E
:102CD00088851F928F9387E292E09F938F930E9443
:102CE000692287DFCDBFDEBF67C02E36B1F5029601
:102CF0008C879D8763EB72E2CE010C960E94B02810
:102D0000FC0180818436A9F0853729F563EB72E2F6
:102D1000CE010C960E94B0280097E9F048E050E000
:102D2000BC018EE597E20E94A12810926627E4DCA0
:102D300012C063EB72E2CE010C960E94B02800979D
:102D400051F048E050E0BC0185E597E20E94A128DF
:102D500010925D27D1DC4DDF2FC0203749F5029658
:102D60008C879D8763EB72E2CE010C960E94B0289F
:102D70000E946B2881110EC081E192E09F938F9396
:102D80000E946922809164068061809364060F909E
:102D90000F9012C08CEF91E09F938F930E94692255
:102DA000809164068F7E809364060F900F9004C01C
:102DB000243611F40E9496222D96CDBFDEBFDF91FE
:102DC000CF911F910F91089589E20C94952143E0D2
:102DD00060E889E20E94F12145ED61E889E20C9406
:102DE000F121AF92BF92CF92DF92EF92FF920F93B9
:102DF0001F93CF93DF93EC0160E889E20E94AA2140
:102E0000833011F0CE01E3DF81E0898764E989E254
:102E10000E94DD21B82EA92E66E989E20E94DD21FB
:102E20007C0168E989E20E94DD218C016AE989E27E
:102E30000E94DD216C014C855D852E853F856A856C
:102E40007B856E197F0977FF03C0719561957109C4
:102E500066307105A4F4401B510B57FF03C0519518
:102E6000419551094630510554F42C193D0937FF5D
:102E700003C03195219531092630310524F1AF92F7
:102E8000BF92DF92CF921F930F93FF92EF92EF8149
:102E9000F88582818F9381818F9388811F928F9390
:102EA0008FEB92E09F938F930E946922EA86FB86C4
:102EB0000C871D87CE86DF868DB79EB70E968DBF99
:102EC0009EBF81E001C080E0DF91CF911F910F9103
:102ED000FF90EF90DF90CF90BF90AF90089588E57E
:102EE00090E208950F931F93CF93DF938C0160E0DE
:102EF00085E10E94C721EC01D80119962D913C91E2
:102F00001A978E3F934011F4CFEFD3E0C9018C1B89
:102F10009D0B97FF03C0919581959109059764F4E6
:102F2000209719F4232B41F425C0CF3FE3E0DE07BF
:102F300009F52F3F3340F1F0DF93CF93D801179677
:102F4000ED91FC91189782818F9381818F938C9161
:102F50001F928F9385ED92E09F938F930E94692239
:102F6000F801C187D2878DB79EB708968DBF9EBFE7
:102F700081E001C080E0DF91CF911F910F91089512
:102F800085E10C9495211F93CF93DF93EB01142FD0
:102F9000488162E085E10E94F121888180FF0DC0B7
:102FA000163059F4229613E048812296612F85E16C
:102FB0000E94F1211F5F1830B9F7DF91CF911F9167
:102FC000089585E690E20895CF92DF92EF92FF9206
:102FD0001F93CF93DF93EC0160E082E10E94AA216E
:102FE000182F61E082E10E94C7217C0163E082E149
:102FF0000E94C7216C01117089852C853D854A8509
:103000005B854E195F0957FF03C0519541955109E2
:103010004330510564F42C193D0937FF03C0319545
:10302000219531092330310514F4811709F1DF921C
:10303000CF92FF92EF921F921F93EF81F8858281CA
:103040008F9381818F9388811F928F9382EE92E07C
:103050009F938F930E9469221987EA86FB86CC860C
:10306000DD868DB79EB70C968DBF9EBF81E001C0F7
:1030700080E0DF91CF911F91FF90EF90DF90CF9094
:10308000089582E10C94952182E790E2089589E306
:103090000C94952143E060E889E30E94F1214DEE14
:1030A00061E889E30E94F12140E067E889E30C943C
:1030B000F1216F927F928F929F92AF92BF92CF92A7
:1030C000DF92EF92FF920F931F93CF93DF93EC0168
:1030D00060E889E30E94AA21833011F0CE01DADF93
:1030E000198664E989E30E94DD21182F092F66E91A
:1030F00089E30E94DD21782E692EA12FB02F2AE1CD
:103100003AEC47E050E00E94E2266C01EE24FF24F6
:10311000A72DB62D0E94E2264C01AA24BB24C1147F
:10312000D104E104F10471F0C501B4013AE0660F85
:10313000771F881F991F3A95D1F7A70196010E9422
:10314000C02603C020E030E0A901DA01C9010196E0
:10315000A11DB11DB695A795979587958B399105BA
:10316000A105B105A0F0843C9105A105B105A0F031
:10317000873E9105A105B105A0F085319140A105DB
:10318000B105A0F0E0E0F0E0A0E0B0E013C0E1E7BE
:10319000FDE3A8E4B1E20EC0E0E3FBE5A7E3BAE299
:1031A00009C0E9EBFDE2AFEEB8E104C0EAE9F9E1FC
:1031B000AFEDBFE0A70196010E94E2266B017C0102
:1031C00030E8D31AE108F108DF01A50194010E945B
:1031D000E226C61AD70AE80AF90A6701EE24FF2494
:1031E0008A859B859601281B390BC90137FF03C0CF
:1031F0009195819591090697F4F0FF92EF92DF92F5
:10320000CF926F927F920F931F938AEC92E29F93DB
:103210008F9388811F928F9385EF92E09F938F9376
:103220000E946922CA86DB86EC86FD868DB79EB732
:103230000E968DBF9EBF80E0DF91CF911F910F91C1
:10324000FF90EF90DF90CF90BF90AF909F908F90C6
:103250007F906F9008958FE790E2089580E60C9438
:103260009521EF92FF920F931F93CF93DF934830F6
:1032700010F1142FEB017B0101E0F7014081F2E036
:10328000EF0EF11C602F80E60E94F1210F5F0930E4
:10329000A1F7183029F0488969E180E60E94F12100
:1032A0004FEF6CE080E6DF91CF911F910F91FF907F
:1032B000EF900C94F121DF91CF911F910F91FF902E
:1032C000EF9008958CE890E208958DE10C9495219B
:1032D0004FE360E28DE10E94F12148E064E28DE17C
:1032E0000E94F12140E066E28DE10C94F1218F9281
:1032F0009F92AF92BF92CF92DF92EF92FF920F9385
:103300001F93CF93DF93EC0160E28DE10E94AA212D
:103310008F3311F0CE01DCDF68E28DE10E94DD2108
:103320006C016AE28DE10E94DD217C016CE28DE19D
:103330000E94DD218C0168E08DE10E94DD21B82E24
:10334000A92E6AE08DE10E94DD21982E892E6CE085
:103350008DE10E94DD214B855C852D853E8569854B
:103360007A856C197D0977FF03C0719561957109A4
:1033700063337105A4F44E195F0957FF03C05195DB
:10338000419551094333510554F4201B310B37FF4C
:1033900003C03195219531092333310544F19F93C1
:1033A0008F938F929F92AF92BF921F930F93FF9232
:1033B000EF92DF92CF92EF81F88582818F938181A6
:1033C0008F9388811F928F9389E093E09F938F93CF
:1033D0000E946922C986DA86EB86FC860D871E87E5
:1033E0008DB79EB742968DBF9EBF81E001C080E041
:1033F000DF91CF911F910F91FF90EF90DF90CF90D1
:10340000BF90AF909F908F90089589E990E20895C2
:10341000FB0130812181822F881F8827881F41E08E
:10342000480F832F922F97FF03C0919581959109A3
:103430008034910514F08FE390E09C012B5F3F4FA7
:103440002B30310530F0880F991F880F991F482BBA
:1034500001C040E060E084E6C4C784E666C786EA4F
:1034600090E2089540E869E183E6BBC783E65DC763
:10347000CF92DF92FF920F931F93CF93DF93CDB73D
:10348000DEB72B97CDBFDEBF443008F403C1F42E66
:103490008B0142E060E083E6A4D7FE0131968AE02A
:1034A000DF011D928A95E9F7F801308181E037FF4D
:1034B00080E0D80112962C9127FD02C040E001C0A7
:1034C00042E0482BF801948197FD02C080E001C0E2
:1034D00084E0542F582BD80116968C9187FD02C09A
:1034E00040E001C048E0452B498341E036FF40E021
:1034F00026FD02C050E001C052E0452B96FD02C0FF
:1035000050E001C054E0542B86FD02C040E001C0F1
:1035100048E0452B4A8341E035FF40E025FD02C0ED
:1035200050E001C052E0452B95FD02C050E001C0C3
:1035300054E0542B85FD02C040E001C048E0452B1B
:103540004B8341E034FF40E024FD02C050E001C065
:1035500052E0452B94FD02C050E001C054E0542BD2
:1035600084FD02C040E001C048E0452B4C8341E0AF
:1035700033FF40E023FD02C050E001C052E0452B84
:1035800093FD02C050E001C054E0542B83FD02C003
:1035900040E001C048E0452B4D8341E032FF40E070
:1035A00022FD02C050E001C052E0452B92FD02C056
:1035B00050E001C054E0542B82FD02C040E001C045
:1035C00048E0452B4E8341E031FF40E021FD02C041
:1035D00050E001C052E0452B91FD02C050E001C017
:1035E00054E0542B81FD02C040E001C048E0452B6F
:1035F0004F8341E030FF40E020FD02C020E001C0E9
:1036000022E0422B90FD02C090E001C094E0942B98
:1036100080FD02C080E001C088E0892B8887B4E08B
:10362000FB1699F0F80180859185019711F480E1EE
:103630008987F5E0FF1649F0D8011A968D919C9183
:103640001B97019711F480E28A87FE0131966F0182
:1036500091E0D6014D916D01692F83E69B87C1D61C
:103660009B859F5F9B30A9F7B6E0BF1528F4F80152
:10367000448569E183E6B5D64FEF6CE083E62B968F
:10368000CDBFDEBFDF91CF911F910F91FF90DF90F3
:10369000CF90A7C62B96CDBFDEBFDF91CF911F91F4
:1036A0000F91FF90DF90CF90089583EB90E2089503
:1036B0000F931F93CF93DF938C0160E086E167D671
:1036C000EC01D80119962D913C911A978E3F9340A9
:1036D00011F4CFEFD3E0C9018C1B9D0B97FF03C002
:1036E000919581959109059764F4209719F4232BFE
:1036F00041F424C0CF3FE3E0DE0701F52F3F334024
:10370000E9F0DF93CF93D8011796ED91FC911897CC
:1037100082818F9381818F938C911F928F9385E209
:1037200093E09F938F93D5D6F801C187D2878DB749
:103730009EB708968DBF9EBF81E001C080E0DF91FB
:10374000CF911F910F91089586E1EFC51F93CF93FD
:10375000DF93EB01142F488162E086E142D6888135
:1037600080FF0CC0163051F4229613E04881229657
:10377000612F86E136D61F5F1830C1F7DF91CF91F8
:103780001F91089580EC90E20895EF92FF920F93BD
:103790001F93CF93DF93CDB7DEB76097CDBFDEBF6A
:1037A0008B01942F41E060E084E5988B1AD64FEFAF
:1037B00063E184E516D64FEF64E184E512D64FEF5E
:1037C00065E184E50ED698899330D1F4D801FC9058
:1037D0001296EC90129714960C9111E04E2D612FD9
:1037E00084E5FFD561E0610F4F2D84E5FAD562E0F5
:1037F000610F402F84E5F5D51D5F103179F727C0A3
:103800009F3029F5AE014F5F5F4FFA0111929A95F3
:10381000E9F7F8018E010D5F1F4FCF014E96980119
:10382000225031096281D9016C932F5F3F4F608133
:10383000D9016C932481D8012C9336960D5F1F4FCC
:10384000E817F90761F72FE061E084E5E3D540E090
:1038500066E184E5C6D56096CDBFDEBFDF91CF912E
:103860001F910F91FF90EF90089584E55EC58DEC58
:1038700090E208958CE259C580E095E3ACE0B0E0B9
:103880000197A109B109E1F7089540E060E08CE2F9
:10389000A8D540E360E28CE2A4D540E464E48CE285
:1038A000A0D54CE361E28CE29CD548E064E28CE276
:1038B00098D540E66FE18CE294D54CE362E78CE268
:1038C00090D540E068E28CE28CD540E06AE28CE280
:1038D00088D540EC63E98CE284D542E064E98CE26F
:1038E00080D5CADF4FEF66E28CE27BC58F929F9254
:1038F000AF92BF92CF92DF92EF92FF920F931F93FE
:10390000CF93DF93EC0161E28CE224D58C3311F08C
:10391000CE01BBDF60E08CE21DD5082F80FF5DC0CB
:1039200063E08CE217D58C73982E6E0189E0C80E87
:10393000D11C82E0E82EF12C10E0AA24A394B12C33
:1039400095010E2C01C0220F0A94EAF7292199F063
:1039500060E16E0D8CE2FED4882E60E36E0D8CE289
:10396000F9D491E088160CF490E0F6018081981764
:1039700011F0908311E0FFEFEF1AFF0A8FEFC81AE2
:10398000D80A96E0E916F104D9F61123F9F08985F1
:103990001F928F938A851F928F938B851F928F938F
:1039A0008C851F928F93EF81F88582818F9381811F
:1039B0008F9388811F928F9382E393E09F938F93DD
:1039C00088D5EDB7FEB73E96EDBFFEBF402F4E7FC8
:1039D00060E08CE206D5812F01C080E0DF91CF91BD
:1039E0001F910F91FF90EF90DF90CF90BF90AF901D
:1039F0009F908F9008958AED90E2089549E464EFD6
:103A000087E7EFC40F931F93CF93C82F682F87E7E3
:103A1000BED48C0162E06C0F87E79CD4A80160E003
:103A200070E094E0440F551F661F771F9A95D1F7F9
:103A300082958F708A019B01080F111D211D311D78
:103A4000C901B801CF911F910F91089587E76DC407
:103A50002F923F924F925F926F927F928F929F929E
:103A6000AF92BF92CF92DF92EF92FF920F931F938C
:103A7000CF93DF93CDB7DEB7AA97CDBFDEBF8B87DD
:103A80009C8763EF87E766D483FDDEC28AEFBADFE7
:103A90006B017C0168E887E790D42C01612C712CC4
:103AA0006AE887E78AD48C014601570134E0B5946F
:103AB000A794979487943A95D1F784189508A60807
:103AC000B7086CE887E779D4FC01D701C60143E069
:103AD000B595A795979587954A95D1F7440C551CB0
:103AE000661C771C9C01AD0124193509460957094C
:103AF000D8010E94E2266B017C016BE0F694E7940A
:103B0000D794C7946A95D1F7A5019401C501B40172
:103B10000E949D269B01AC017CE055954795379509
:103B200027957A95D1F7DF010E94E226DC01CB01CF
:103B3000EEE0B695A79597958795EA95D1F7A701F9
:103B40009601280F391F4A1F5B1F2F83388749872B
:103B50005A8787EF57DF6F8F78A389A39AA3CF8007
:103B6000D884E984FA84FF0CCC08DC2C76012F8100
:103B7000388549855A856C2D7C2D8C2D9C2D345F84
:103B80004140510961097109810991092AA739A7A1
:103B900049835A836B837C838D839E8359016A0199
:103BA0007B018C010E94EC262F8B388F498F5A8F16
:103BB0006B8F7C8F8D8F9E8F68E987E7FED38BA3F9
:103BC0009CA366E987E7F9D38DA39EA364E987E701
:103BD000F4D38FA398A762E987E7EFD38D879E87F9
:103BE00060E987E7EAD35C01C12CD12CE12CF12CF0
:103BF00000E010E02AA539A549815A816B817C81BA
:103C00008D819E810E94EC260CE00E9407281901FC
:103C10002A013B014C016EE887E7CFD38F87988B51
:103C20008D859E855C0100E010E02F89388D498DDF
:103C30005A8D6B8D7C8D8D8D9E8D0E94EC2608E0BB
:103C40000E94202851016201730184010E943E28D4
:103C500070588F4F9F4FAF85B8895D01C12CD12C13
:103C6000E12CF12C00E010E00E94EC2601E20E9421
:103C700020282D873F87498B5A8B6B8B7C8B8D8BB4
:103C80009E8BA0E00E94502809F474C1EBA1FCA116
:103C90005F0100E010E02F89388D498D5A8D6B8DC2
:103CA0007C8D8D8D9E8D0E94EC2619012A013B0191
:103CB0004C018DA19EA15C0100E010E02AA539A570
:103CC00049815A816B817C818D819E810E94EC2685
:103CD00001E10E94072859016A017B018C019101D1
:103CE000A201B301C4010E943E2819012A013B012F
:103CF00089839A8380E090E0A0E1B0E02F8D38A125
:103D000049A15AA1821B930BA40BB50B6C017D0139
:103D1000FF0CCC08DC2C76019C01AD016C2D7C2DB8
:103D20008C2D9C2D0FE10E9407284901DA016C833C
:103D30007D83F82FE92F4FA158A59A0140E050E06C
:103D400060E070E080E090E003E20E940728590103
:103D50006A017B018C019101A201B30189819A81E1
:103D60000E943E2859016A017B018C019401AD013A
:103D70006C817D818F2F9E2F0E9447284901542EF0
:103D8000652EB62FA72FF82FE92F03E00E940728F2
:103D90005401C52CD62CEB2EFA2E0F2F1E2F0E946D
:103DA000472859016A017B01782E192F03E00E94F0
:103DB0000728072D0E94472803E00E940728540186
:103DC000C52CD62CEB2EFA2E0F2F1E2F0E94472823
:103DD00002E00E9407280F2F0E94472801E00E945E
:103DE00007280F2F0E944728AD84BF84C988DA882E
:103DF000EB88FC880D891E890E943F272F87232E80
:103E000049835A836B837C838D839E836EE987E726
:103E1000D4D27C012F85322D49815A816B817C81DE
:103E20008D819E810DE00E942028322E432E542E3B
:103E3000652E762E872E982E998B6CE987E7BDD25A
:103E40008D879E87A701A32CB42CC52CD62CE72CDC
:103E5000F82C092D19899A0140E050E060E070E0EB
:103E600080E090E0B9D7B8D709E10E942028590135
:103E70006A017B018C012F85322D49815A816B812A
:103E80007C818D819E810E943E28322E432E542EAD
:103E9000652E762E872E982E998BED85FE85AF8424
:103EA000B22CC980DA80EB80FC800D811E819F01DD
:103EB00040E050E060E070E080E090E08DD703E10A
:103EC0000E94202859016A017B018C01232D342D89
:103ED000452D562D672D782D892D99890E943E28D4
:103EE00008E00E94202829013A014B011C016AE9DF
:103EF00087E763D29C0140E050E060E070E080E042
:103F000090E004E00E94072859016A017B018C01BE
:103F10009201A301B401C1010E943E28122FD32EA9
:103F2000E42EB52FF62FE72FF82E092FA0E00E94E0
:103F3000502884F421503F4F4F4F5F4F6F4F7F4FBA
:103F40008F4F9F4F122FD32EE42EB52FF62FE72F32
:103F5000F82E092F212F3D2D4E2D5B2F6F2F7E2FF9
:103F60008F2D902F08E00E942028C22ED32EE42E01
:103F7000F52E03C0C12CD12C7601AB85BC851B96D8
:103F80008D909D90AD90BC901E97A5E0B0E02F81E4
:103F9000388549855A8516D72B013C01B0E84B0E70
:103FA000511C611C711C452C562C672C772467FC16
:103FB0007A94EB85FC85818592859201281B390BCB
:103FC000C90137FF03C0919581959109069754F473
:103FD000C6018819990997FF03C0919581959109A8
:103FE000C39764F1FF92EF92DF92CF927F926F922C
:103FF0005F924F92EB85FC85A781B08512968C91DC
:1040000012978F9311968C918F9380811F928F932B
:1040100088E493E09F938F935CD2AB85BC8519961F
:104020004D925D926D927C921C97FD01C386D48661
:10403000E586F686CDBFDEBF81E007C049E464EFC8
:1040400087E7CFD180E001C080E0AA96CDBFDEBF78
:10405000DF91CF911F910F91FF90EF90DF90CF9064
:10406000BF90AF909F908F907F906F905F904F9098
:104070003F902F90089587EE90E20895E091592A9D
:10408000F0915A2A81E090E09C010090582A02C0E9
:10409000220F331F0A94E2F72683218328E32A950F
:1040A000F1F7E0915B2AF0915C2A00905D2A02C052
:1040B000880F991F0A94E2F78683818388E38A95A3
:1040C000F1F70895E0915B2AF0915C2A81E090E09D
:1040D0009C0100905D2A02C0220F331F0A94E2F770
:1040E000228328E32A95F1F7E091592AF0915A2A80
:1040F0000090582A02C0880F991F0A94E2F7828321
:1041000088E38A95F1F70895FC0141E050E002C090
:10411000440F551F6A95E2F7428390E088E38A9541
:10412000F1F79F5F208530E024233523232B19F4FA
:104130009730A1F702C0973019F482E08093572A94
:104140000895E091592AF0915A2A81E090E09C016B
:104150000090582A02C0220F331F0A94E2F72283EC
:1041600028E32A95F1F7E0915B2AF0915C2A009010
:104170005D2A02C0880F991F0A94E2F7828388E3C0
:104180008A95F1F7E091592AF0915A2A808590E0BA
:104190000090582A02C0959587950A94E2F780FF0F
:1041A00002C084E001C083E08093572AE0915B2A3B
:1041B000F0915C2A81E090E09C0100905D2A02C0B1
:1041C000220F331F0A94E2F72683218328E32A95DE
:1041D000F1F7E091592AF0915A2A0090582A02C02A
:1041E000880F991F0A94E2F78683818388E38A9572
:1041F000F1F7089548E050E021E030E0E091592ADD
:10420000F0915A2A9091582AB90101C0660F9A95E7
:10421000EAF787FF02C0628302C06683618398E386
:104220009A95F1F7E0915B2AF0915C2AB901009030
:104230005D2A02C0660F771F0A94E2F7628398E353
:104240009A95F1F7E0915B2AF0915C2AB901009010
:104250005D2A02C0660F771F0A94E2F766836183C6
:1042600098E39A95F1F7880F4150510939F669CFD3
:10427000EF92FF920F931F93CF93E091592AF09101
:104280005A2A81E090E00090582A02C0880F991FB6
:104290000A94E2F7828308E010E0C0E0EE24E394A1
:1042A000F12C60915D2A80915B2A90915C2A2CDF31
:1042B00088E38A95F1F7E091592AF0915A2A2085EE
:1042C00030E00090582A02C0359527950A94E2F70D
:1042D00021703327CC0FC22BE0915B2AF0915C2A2E
:1042E000C70100905D2A02C0880F991F0A94E2F767
:1042F0008683818388E38A95F1F70150110989F655
:1043000020DF8C2FCF911F910F91FF90EF90089598
:104310008093592A90935A2A6093582A40935B2A93
:1043200050935C2A20935D2A0895CF93DF931F92C8
:10433000CDB7DEB78983A2DE8981880F5BDFC2DE5D
:1043400081E09091572A933009F080E00F90DF913F
:10435000CF9108951F93CF93DF931F92CDB7DEB710
:10436000182F110F69838ADE812F44DF6981862F20
:1043700041DFA8DE83DE812F81603CDF79DF898326
:10438000A1DE89810F90DF91CF911F9108951F9336
:10439000CF93DF93182FD62FDDDFC82F61E06D0F8D
:1043A000812FD8DF2C2F30E0322F2227A901482B74
:1043B000CA01DF91CF911F9108951F93CF93DF938F
:1043C000182FC62FC7DFD82F61E06C0F812FC2DFF7
:1043D0002D2F30E0A901582BCA01DF91CF911F91F9
:1043E0000895CF93DF9300D01F92CDB7DEB74B83F4
:1043F0006A83898343DE8981880FFCDE6A81862F88
:10440000F9DE4B81842FF6DE2396CDBFDEBFDF9130
:10441000CF9158CECF92DF92EF92FF920F931F93DE
:10442000CF93DF9300D01F92CDB7DEB77A012B83F5
:104430006A83898323DE8981880FDCDE6A81862F87
:10444000D9DE87012B81C22ED12CC8018E199F097C
:104450008C159D052CF4F80181918F01CBDEF5CFF1
:104460002396CDBFDEBFDF91CF911F910F91FF90BB
:10447000EF90DF90CF9026CECF93C82F0E942905D2
:10448000882331F08C2FCC0F990BCF910C947205AF
:10449000CF910895EF92FF921F93CF93DF931F92D6
:1044A000CDB7DEB7182F99830E94290599818823FB
:1044B00049F0E12EF92EF70181917F01882311F057
:1044C000DBDFF9CF0F90DF91CF911F91FF90EF903D
:1044D0000895CF93DF93CDB7DEB70E9429058823D7
:1044E00059F0AE01495F5F4F6D817E8182EA95E2AE
:1044F00057D682EA95E2CEDFDF91CF910895CF9330
:10450000DF9300D0CDB7DEB72091642A3091652AC1
:104510002115310511F428E63AE2CE010196821BFD
:10452000930B0F900F90DF91CF9108958F929F92F0
:10453000AF92BF92CF92DF92EF92FF920F931F93B1
:10454000CF93DF9300D000D0CDB7DEB740913427B2
:104550005091352760913627709137278091382701
:1045600090913927A0913A27B0913B279A01AB014E
:10457000280F391F4A1F5B1F60E472E48FE090E050
:10458000FFD329833A834B835C83B9DF9F938F9357
:104590008DE993E09F938F939CDF60913427709116
:1045A000352780913627909137275C815F934B8127
:1045B0004F933A813F9329812F939F938F937F93BA
:1045C0006F9328EE33E040E050E0DAD35F934F93EF
:1045D0003F932F9381E893E09F938F937ADF83E754
:1045E00093E09F938F9375DF07E617E2CDBFDEBFA1
:1045F000812C912C8CE6C82E83E0D82E9DE5A92E27
:1046000093E0B92E2AE5E22E23E0F22E9F928F92BC
:10461000DF92CF925EDFD8011796ED91FC9118974B
:104620000F900F900F900F90309781F080811F9224
:104630008F9382818F9381818F93BF92AF9249DF55
:104640000F900F900F900F900F900F909F928F925E
:10465000FF92EF923EDFBFEF8B1A9B0A025C1F4F67
:104660000F900F900F900F9088E08816910471F6CC
:104670002496CDBFDEBFDF91CF911F910F91FF90A8
:10468000EF90DF90CF90BF90AF909F908F90089564
:104690009FB7F894A0E5B0E016968C911697897FA5
:1046A00016968C931697E0E6F0E080E885838BEB16
:1046B000868316968C911697846016968C938081CB
:1046C000816080839FBF0895CF93DF9300D000D097
:1046D000CDB7DEB78FEF8093700080937100809329
:1046E00072008093730080937400809375008093B0
:1046F000760064E081E490E09BD06CE170E082E0C1
:104700008DD08C836DE170E082E088D08B838B81CB
:104710009C81019621F480E493E28B839C838B81BE
:104720009C8189839A83809362008A81809363004D
:104730009FB7F894809150008260809350009FBF93
:104740008091510081FFFCCFA3DF61E080E490E025
:104750006FD09FB7F894809150008E7F8093500067
:104760009FBF2496CDBFDEBFDF91CF9108959FB745
:10477000F894E82FF0E0E059FF4F609580816823BE
:1047800060839FBF0895CF93863011F0C0E001C0D1
:10479000C8E18091510081FD0DC09FB7F8948091D0
:1047A00050008260809350009FBF8091510081FF34
:1047B000FCCF6EDF6C2F636084E490E039D060E45E
:1047C00080E0CF91D4CF682F70E082E027C0CF93F4
:1047D000DF93EC0188E0F7DF888389E0F4DF8983E9
:1047E0008AE0F1DF8A838BE0EEDF8B838CE0EBDF06
:1047F0008C838DE0E8DF8D8380E1E5DF8E8382E1CD
:10480000E2DF8F8383E1DFDF888784E1DCDF898774
:1048100085E1D9DF8A87DF91CF9108954091CA0160
:10482000E62FF72F8093CA0184914093CA0108951F
:104830001BBEFC0128ED24BF60830895089580917C
:10484000AE269091AF26A091B026B091B126C29627
:10485000A11DB11D8093AE269093AF26A093B026E4
:10486000B093B1260C9415020E9484139DEF88ED3D
:1048700008B618BE84BF9093800008BE0E94F5134E
:10488000D7E0D093A200789410925E2A10925F2A0B
:104890001092602A1092612A1092622AC1E0C0939D
:1048A000632A12DFCBDF8FEF8093000680E18093D5
:1048B0006006809164068F7E8093640688E1809311
:1048C0007506D0938006C093860682E080938606A4
:1048D00084E0809386060E94410680E098E00E9472
:1048E000200D6FE174E280E098E00E945B0D809102
:1048F0000108887F8093010880EB94E0809326086C
:1049000090932708809106088C7F809306088091F9
:10491000060883608093060880910008807F81608C
:1049200080930008F12CC0EDD3E0EE24E39400EB7B
:1049300013E08091680685FD0BC08091B22681113D
:1049400007C0DF93CF93C5DDE092B2260F900F90A2
:104950008091680685FF0BC08091B226882339F0CC
:104960001F930F93B6DD1092B2260F900F90809197
:10497000B326882311F18090AE269090AF26A090A8
:10498000B026B090B12684EB96E20E9413161092E6
:10499000B3268091AE269091AF26A091B026B0911B
:1049A000B12688199909AA09BB09809338279093E1
:1049B0003927A0933A27B0933B27F11002C00E94F9
:1049C000EB14F3948090AE269090AF26A090B02682
:1049D000B090B1266091AE267091AF268091B0263E
:1049E0009091B1260E9438158091AE269091AF2605
:1049F000A091B026B091B12688199909AA09BB09DE
:104A00008093342790933527A0933627B093372788
:104A100090CF089581E008950895089508950F9323
:104A20001F93CF93DF93FC0180818D3231F461506D
:104A300021E030E04FEF5FEF04C020E030E041E0E4
:104A400050E06330D1F148F4613009F45FC0623066
:104A500009F06CC080E090E045C06430A9F065309A
:104A600009F064C0DF01A20FB31FAC910A2E000C45
:104A7000BB0BD097C0E1D7E2AC9FC001AD9F900DBA
:104A8000BC9F900D112402C080E090E0DF01A20FD6
:104A9000B31FA60FB11D1497AC910A2E000CBB0BCF
:104AA000D09708EE13E0A09FE001A19FD00DB09F2A
:104AB000D00D11248C0F9D1F02C080E090E0DF011B
:104AC000A20FB31FA60FB11D1397AC910A2E000CB5
:104AD000BB0BD09774E67A9FE0017B9FD00D112429
:104AE0008C0F9D1FDF01A20FB31FA60FB11D1297E0
:104AF000AC910A2E000CBB0BD0977AE07A9FE001B4
:104B00007B9FD00D11248C0F9D1F02C080E090E090
:104B1000E20FF31FE60FF11D31972081022E000CEA
:104B2000330B20533109820F931F02C080E090E0C5
:104B30009C01249FC001259F900D349F900D11244E
:104B4000DF91CF911F910F9108955F926F927F92A5
:104B50008F929F92AF92BF92CF92DF92EF92FF928D
:104B60000F931F93CF93DF9389E0E82E01E09EE33C
:104B7000992E22E0822EC3EAD6E216E038E0732EA8
:104B800043E2C42E46E2D42E50E8F52E0E94B5042E
:104B9000882309F4C2C00E94FA049091AD268D309A
:104BA00009F03EC0923009F5A090AB26B090AC263B
:104BB0006090AA2655245394560C5092AA266091D0
:104BC000A92683EA96E22BDFF501E60DF11DE60D3D
:104BD000F11D858B968B1092A926FE01812F1192D3
:104BE0008A95E9F7F50155AE11C0993079F48091B5
:104BF000B32681110BC0E3E2F6E2A4EBB6E28F2DFF
:104C000001900D928A95E1F70093B3261092222627
:104C1000F6018F2D11928A95E9F71092AD26B6CF45
:104C2000E091222621E02E0F20932226F0E0ED5D78
:104C3000F94D8083923089F58C3209F56091A9266F
:104C4000662301F16090AB26A090AC26B090AA2616
:104C500081E08B0D8093AA2683EA96E2E0DEE62DC2
:104C6000FA2DEB0DF11DEB0DF11D858B968B10923E
:104C7000A926FE01812F11928A95E9F787CF80320C
:104C800009F484CFE091A92691E09E0F9093A92684
:104C9000F0E0ED55F94D808379CF913059F5223010
:104CA00031F4803209F472CF7092AD266FCF233089
:104CB000D9F780538930C0F790E00197989EF001B2
:104CC000999EF00D1124E959F84DE093AB26F0932D
:104CD000AC2687819085892B39F315AE8092AD265D
:104CE0001092AA261092A926FE01812F11928A9570
:104CF000E9F74CCF91114ACF823739F4F89488ED17
:104D000084BF81E08093790008C0833719F4009351
:104D1000AD263CCFE092AD2639CFDF91CF911F91E8
:104D20000F91FF90EF90DF90CF90BF90AF909F904A
:104D30008F907F906F905F900895DB018F939F938A
:104D400041D0BF91AF91A29F800D911DA39F900D67
:104D5000B29F900D11240895AA1BBB1B51E107C0FF
:104D6000AA1FBB1FA617B70710F0A61BB70B881FFB
:104D7000991F5A95A9F780959095BC01CD0108958A
:104D8000A1E21A2EAA1BBB1BFD010DC0AA1FBB1F4F
:104D9000EE1FFF1FA217B307E407F50720F0A21BC1
:104DA000B30BE40BF50B661F771F881F991F1A942E
:104DB00069F760957095809590959B01AC01BD0158
:104DC000CF01089579D1A59F900DB49F900DA49F18
:104DD000800D911D11240895DF93CF931F930F939E
:104DE0009A9DF02D219FF00D8B9DF00D8A9DE02D59
:104DF000F10D039FF00D029FE00DF11D4E9DE00DA2
:104E0000F11D5E9DF00D4F9DF00D7F936F93BF924E
:104E1000AF925F934F93D5014FD18B01AC01D70176
:104E20004BD1EB01E80FF91FD6011FD02F913F9115
:104E3000D60142D1C60FD71FE81FF91FAF91BF910E
:104E400014D02F913F9138D1C60FD71FE81FF91FFB
:104E5000D60132D1E60FF71F9801BE01CF01112410
:104E60000F911F91CF91DF91089526D1460F571FC3
:104E7000C81FD91F08F431960895689401C0E894BA
:104E8000F92FF12B0AF027C0A0E0B0E0E9E4F7E247
:104E900093C0092E05941AF479D0112392F4F0E806
:104EA0000F26FFEFE094F09400951095B094C09415
:104EB000D094A194BF0ACF0ADF0AEF0AFF0A0F0BB2
:104EC0001F0B13D007FC62D0CDB7DEB7ECE08DC06E
:104ED000689401C0E8948F929F92CF93DF9305D09E
:104EE000DF91CF919F908F90089588249924F401A9
:104EF000E401B0E49F93AA279A158B049C04ED0566
:104F0000FE05CF05D007A10798F4AD2FDC2FCF2FDA
:104F1000FE2FE92D982C892E982F872F762F652F1D
:104F2000542F432F322F2227B85031F7BF9127C07B
:104F30001B2EBF91BB27220F331F441F551F661F17
:104F4000771F881F991F881C991CEE1FFF1FCC1FFD
:104F5000DD1FAA1FBB1F8A149B04EC05FD05CE05AF
:104F6000DF05A007B10748F08A189B08EC09FD0986
:104F7000CE09DF09A00BB10B21601A94E1F62EF4E3
:104F80009401AF01BE01CD01000C089560957095AC
:104F90008095909530954095509521953F4F4F4F76
:104FA0005F4F6F4F7F4F8F4F9F4F08952F923F92CC
:104FB0004F925F926F927F928F929F92AF92BF9229
:104FC000CF92DF92EF92FF920F931F93CF93DF93D5
:104FD000CDB7DEB7CA1BDB0BCDBFDEBF09942A8875
:104FE000398848885F846E847D848C849B84AA84FD
:104FF000B984C884DF80EE80FD800C811B81AA818A
:10500000B981CE0FD11DCDBFDEBFED0108950F9345
:10501000083090F0982F872F762F652F542F432F2D
:10502000322F22270850F4CF220F331F441F551F61
:10503000661F771F881F991F0A95B2F70F91089571
:1050400097FB10F8169400080F93083098F008505A
:10505000232F342F452F562F672F782F892F902DF0
:10506000F4CF0594979587957795679557954795CC
:10507000379527950A95AAF70F9108952A0D3B1D9C
:105080004C1D5D1D6E1D7F1D801F911F08952A19E7
:105090003B094C095D096E097F09800B910B08954E
:1050A0000024A7FD00942A1730054005500560052F
:1050B0007005800590050895A29FB001B39FC001BF
:1050C000A39F700D811D1124911DB29F700D811D34
:1050D0001124911D0895FC0188279927E8942191B6
:1050E0002032E9F3293010F02E30C8F32B3239F09A
:1050F0002D3231F4689403C04BD0820F911D219161
:1051000020532A30C8F31EF4909581959F4F08953F
:10511000FB01DC0102C001900D9241505040D8F7D4
:105120000895FB01DC018D91019080190110D9F3E4
:10513000990B0895FB01DC0101900D920020E1F72D
:105140000895FB01DC014150504048F001900D9260
:105150000020C9F701C01D9241505040E0F708956A
:10516000FC01A081B181AD01109681F03D91FB0160
:10517000019003160110E1F7C9F7002011F4D001E6
:1051800002C01E921196FC01A083B183CA0108954A
:105190007AE0979F902D879F802D910D112408957F
:1051A000AEE0B0E0E5EDF8E20FCF8C018EE08C834D
:1051B00009831A838FEF9FE78D839E83CE0101962B
:1051C00009D02F813885F801E20FF31F10822E9647
:1051D000E4E013CFACE0B0E0EFEEF8E2E7CE7C0124
:1051E0006B018A01FC0116821782838181FFB0C1A5
:1051F000CE0101964C01F7019381F60193FD859153
:1052000093FF81916F01882309F49EC1853239F49F
:1052100093FD859193FF81916F01853221F4B70150
:1052200090E0B1D1E8CF512C312C20E02032A0F415
:105230008B3269F030F4803259F0833269F42061A6
:105240002CC08D3239F0803339F4216026C02260C1
:10525000246023C0286021C027FD27C030ED380F0F
:105260003A3078F426FF06C0FAE05F9E300D112434
:10527000532E13C08AE0389E300D1124332E206245
:105280000CC08E3221F426FD5FC1206406C08C362E
:1052900011F4206802C0883641F4F60193FD85912F
:1052A00093FF81916F018111C1CF982F9F7D9554FC
:1052B000933028F40C5F1F4FFFE3F9830DC0833652
:1052C00031F0833771F0833509F057C021C0F80100
:1052D000808189830E5F1F4F44244394512C5401D5
:1052E00014C03801F2E06F0E711CF801A080B1808B
:1052F00026FF03C0652D70E002C06FEF7FEFC50190
:105300002C8736D12C0183012C852F77222E16C0B5
:105310003801F2E06F0E711CF801A080B18026FF09
:1053200003C0652D70E002C06FEF7FEFC5012C87D1
:1053300014D12C012C852068222E830123FC19C056
:10534000832D90E048165906A0F4B70180E290E062
:105350001AD13A94F5CFF50127FC859127FE81916A
:105360005F01B70190E00FD131103A94F1E04F1A8C
:1053700051084114510479F7DEC0843611F08936A2
:1053800031F5F80127FF07C0608171818281938127
:105390000C5F1F4F08C060817181072E000C880BC5
:1053A000990B0E5F1F4F2F76722E97FF09C09095B5
:1053B0008095709561957F4F8F4F9F4F2068722E1B
:1053C0002AE030E0A40117D1A82EA81843C08537E1
:1053D00029F42F7EB22E2AE030E025C0F22FF97F8B
:1053E000BF2E8F36C1F018F4883579F0ADC0803704
:1053F00019F0883721F0A8C02F2F2061B22EB4FEFB
:105400000DC08B2D8460B82E09C024FF0AC09F2FC9
:105410009660B92E06C028E030E005C020E130E0FB
:1054200002C020E132E0F801B7FE07C0608171815F
:10543000828193810C5F1F4F06C06081718180E083
:1054400090E00E5F1F4FA401D6D0A82EA818FB2D08
:10545000FF777F2E76FE0BC0372D3E7FA51450F4CC
:1054600074FE0AC072FC08C0372D3E7E05C0BA2CFF
:10547000372D03C0BA2C01C0B52C34FF0DC0FE017E
:10548000EA0DF11D8081803311F4397E09C032FFAD
:1054900006C0B394B39404C0832F867809F0B39404
:1054A00033FD12C030FF06C05A2CB31418F4530C4D
:1054B0005B18B32CB31460F4B70180E290E03C8732
:1054C00062D0B3943C85F6CFB31410F43B1801C0FE
:1054D000312C34FF11C0B70180E390E03C8753D0FA
:1054E0003C8532FF16C031FD03C088E790E002C062
:1054F00088E590E0B7010CC0832F867851F031FF2A
:1055000002C08BE201C080E237FD8DE2B70190E07E
:105510003AD0A51430F4B70180E390E034D05A9427
:10552000F8CFAA94F401EA0DF11D8081B70190E053
:105530002AD0A110F6CF332009F45DCEB70180E266
:1055400090E021D03A94F7CFF7018681978102C08D
:105550008FEF9FEF2C96E2E142CDFC010590615068
:1055600070400110D8F7809590958E0F9F1F089579
:10557000FC016150704001900110D8F78095909522
:105580008E0F9F1F08950F931F93CF93DF93FB01FF
:10559000238121FD03C08FEF9FEF28C022FF16C09B
:1055A00046815781248135814217530744F4A081F5
:1055B000B1819D012F5F3F4F208331838C932681E2
:1055C00037812F5F3F4F2683378310C0EB01092FB0
:1055D000182F0084F185E02D0995892BE1F68E8145
:1055E0009F8101968E839F83812F902FDF91CF9192
:1055F0001F910F910895FA01AA27283051F1203107
:1056000081F1E8946F936E7F6E5F7F4F8F4F9F4F56
:10561000AF4FB1E03ED0B4E03CD0670F781F891F98
:105620009A1FA11D680F791F8A1F911DA11D6A0F66
:10563000711D811D911DA11D20D009F468943F9119
:105640002AE0269F11243019305D3193DEF6CF0118
:105650000895462F4770405D4193B3E00FD0C9F7DE
:10566000F6CF462F4F70405D4A3318F0495D31FD4B
:105670004052419302D0A9F7EACFB4E0A69597959E
:10568000879577956795BA95C9F700976105710574
:1056900008959B01AC010A2E0694579547953795BE
:1056A0002795BA95C9F7620F731F841F951FA01D18
:1056B0000895E0ECF1E0A785A7FDFDCFA485A860E3
:1056C000A4876050704F24CDDC01A40FB51F41505A
:1056D000504040F0CB01840F951F2E9105D04150D2
:1056E0005040D8F70895262F2ED00080021611F0D2
:1056F00004D0019701970895262FE0ECF1E037855B
:1057000037FDFDCF3485377F3487378531FF09C0BA
:1057100036E3328738ED34BF31E03387378537FDE4
:10572000FDCF33E33287808391831282248325E384
:10573000228728ED31E024BF33870196089503D0F6
:10574000808199270895E0ECF1E0378537FDFDCFA2
:10575000348538603487FC01E050F04F0895F894A8
:02576000FFCF79
:10576200FFFFFFFFFFFFFFFF5804AF02A602A802E0
:105772009603BB02A002AE03A802000000030000D1
:105782000000000000000000000000000000000017
:105792000000000000000000466C6F74696C6C61D0
:1057A20020446F636B0050696D6F726F6E69204C9D
:1057B200746400000403090429B5220000E716E41A
:1057C20016F116000015BC22E8030000C01772177C
:1057D200C31712C122E80300004118E41700003980
:1057E200CA2200004A1847185918000060D0220047
:1057F2000000002E19000031191DD722E803681994
:1058020065197719000064DE22000000002D1A00DD
:1058120000081A63E4220000321A361A0000381A0D
:1058220016EB22E8030000A41B581BA61B54F2220D
:1058320000000000351C0000C51B2CFA22E80345BD
:105842001C3A1C761C00007700231027FE1C261D24
:10585200281D00004621FA2000000221FE2012200D
:1058620008200902430002010080FA090400000135
:10587200020201000524001001042402020524068C
:1058820000010524010301070582034000100904F9
:105892000100020A0000000705810240000007051E
:1058A2000202400000001201000202000040D01675
:1058B200C3080001010200018C99A5B1BDC7D2DB6A
:1058C200E3EBF1F7FBFDFFFAF5F0E6D2B496B4D2C2
:1058D200E6F0F5FAFFFFFCF9F4EFE8E0D7CDC3B844
:1058E200ACA094877A6D6155493E332920181A235A
:1058F2002C36414C5864717D00000000000000000D
:105902000000000000000000000000000000010193
:105912000101010101020202020202030303030365
:10592200040404040505050506060607070708081A
:10593200080909090A0A0B0B0B0C0C0D0D0D0E0EB2
:105942000F0F10101111121213131415151616172A
:10595200171819191A1B1B1C1D1D1E1F1F2021227F
:10596200222324252526272828292A2B2C2D2E2EB2
:105972002F303132333435363738393A3B3C3D3EBD
:105982003F404142434445464748494A4C4D4E4FA9
:1059920050515354555658595A5B5D5E5F6062636D
:1059A200646667686A6B6D6E6F7172747577787909
:1059B2007B7C7E808183848687898A8C8E8F91927C
:1059C200949697999B9D9EA0A2A3A5A7A9AAACAEC7
:1059D200B0B2B3B5B7B9BBBDBFC1C2C4C6C8CACCE9
:1059E200CED0D2D4D6D8DADCDEE0E3E5E7E9EBEDDF
:1059F200EFF1F4F6F8FAFCFF1000200040008000FE
:105A020000010002FF03312E313200556E6E616DCE
:105A12006564002000636F6C6F7572006469616C6D
:105A2200006A6F79737469636B006C6967687400EC
:105A32006D6174726978006D6F74696F6E006D6F5D
:105A4200746F72006E756D62657200736C69646565
:105A520072007261696E626F7700746F75636800BD
:085A620077656174686572004C
:00000001FF
