:100000000CC2000027C2000025C2000023C200006D
:1000100021C200001FC200001DC200001BC2000060
:1000200019C2000017C2000015C2000013C2000070
:1000300011C200000FC200000C940C090C94350989
:100040000C945E090C9487090C94B0090C94D9099E
:100050000C94020A0C942B0A0C94540A0C947D0AFA
:10006000F9C10000F7C10000F5C10000F3C10000B4
:10007000F1C10000EFC10000EDC10000EBC10000C4
:10008000E9C10000E7C10000E5C10000E3C10000D4
:10009000E1C10000DFC10000DDC10000DBC10000E4
:1000A000D9C10000D7C10000D5C10000D3C10000F4
:1000B000D1C10000CFC10000CDC100000C94400CA4
:1000C0000C94690C0C94920C0C94BB0C0C94E40CE6
:1000D0000C940D0DBFC10000BDC10000BBC10000EC
:1000E000B9C10000B7C10000B5C10000B3C1000034
:1000F000B1C10000AFC10000ADC10000ABC1000044
:10010000A9C10000A7C10000A5C10000A3C1000053
:10011000A1C100009FC100009DC100009BC1000063
:1001200099C1000097C1000095C1000093C1000073
:1001300091C100000C94A60A0C94CF0A0C94F80A02
:100140000C94210B0C944A0B0C94730B0C949C0B89
:100150000C94C50B0C94EE0B0C94170C7BC1000097
:1001600079C1000077C1000075C1000073C10000B3
:1001700071C100006FC100006DC100006BC10000C3
:1001800069C1000067C1000065C1000063C10000D3
:1001900061C100005FC100005DC100005BC10000E3
:1001A00059C1000057C1000055C1000053C10000F3
:1001B00051C100004FC100004DC100004BC1000003
:1001C00049C1000047C1000045C1000043C1000013
:1001D00041C100003FC100003DC100003BC1000023
:1001E00039C1000037C1000035C1000033C1000033
:1001F00031C100000C9414120C94BF1223204D6FD7
:1002000064756C6520506F776572204F6E210D0A02
:100210000023204D6F64756C6520506F77657220E8
:100220004F6666210D0A00232053657269616C3A9E
:10023000202530327825303278253032782530321A
:1002400078253032782530327825303278253032B2
:10025000782530327825303278253032780D0A0012
:10026000232056657273696F6E3A2025730D0A005C
:100270002320466C6F74696C6C61207265616479CF
:1002800020746F20736574207361696C2E2E0D0AC3
:100290000023205265706F727473204F6E0D0A0038
:1002A00023205265706F727473204F66660D0A00CA
:1002B0002320446F636B3A2025730D0A00232055D9
:1002C0007365723A2025730D0A00642025642F257A
:1002D000730D0A00632025642F25730D0A00752015
:1002E00025642F25732025752C25752C25752C2527
:1002F000750D0A00752025642F25732025640D0ACD
:1003000000752025642F25732025642C25642C2559
:10031000640D0A00752025642F25732025642C2583
:10032000642C256C750D0A00752025642F2573201B
:1003300025642C25642C25642C25642C25642C250F
:10034000640D0A00752025642F25732025750D0A7C
:1003500000752025642F25732025752C25752C25E7
:10036000752C25750D0A00752025642F2573202511
:100370006C642C256C750D0A000D0A00202D2025BB
:10038000732028307825303278290023202D20252D
:10039000640023204368616E6E656C733A0D0A0039
:1003A00023204C6F6F703A2025646D7320282564DC
:1003B0007573292025646670730D0A00232053523B
:1003C000414D3A2025642062797465730D0A00233B
:1003D000204D696E6920446F636B0D0A0023205223
:1003E00065636F76657265642066726F6D206F76E7
:1003F00065722D63757272656E740D0A0023204F4D
:100400007665722D63757272656E742064657465AD
:10041000637465642E2E2E0D0A0011241FBECFEFCB
:10042000CDBFDFE2DEBF13E2A0E0B0E2ECE3F9E52E
:1004300002C005900D92AA30B107D9F72AE2AAE0CE
:10044000B3E201C01D92A137B207E1F70E9419255E
:100450000C949C2CD5CDEF92FF920F931F93CF93CA
:10046000DF9380910B238F5F80930B2340910C23AC
:1004700050E0A0E0B0E2ED0180E090E020E067E035
:1004800070E001E010E0FA01082E02C0F595E79552
:100490000A94E2F7E0FF06C0E881F0E0E656FE4D80
:1004A000308101C030E0E0910B23E31718F0388170
:1004B000373950F0FB01E81BF90B780102C0EE0C54
:1004C000FF1CEA95E2F72E290196219688309105C6
:1004D000D1F620930406E0910A2380910B23E69540
:1004E000EF73F0E0E65AFE4DE081E695F0E0E65667
:1004F000FE4D968D891720F481E08093850603C018
:1005000081E08093860680910B23873320F482E07C
:100510008093850603C082E08093860680910B233A
:10052000873320F484E08093850603C084E08093C1
:10053000860680910B23811112C096E48C918A3437
:1005400018F083508C9301C09C93119680E2A830E0
:10055000B807A1F780910A238F5F80930A23DF9168
:10056000CF911F910F91FF90EF90089580912224D9
:10057000815080932224089580E0089580E00895BA
:1005800060E374E280E00C94EE2580912124815098
:1005900080932124809121240E94F125109220240F
:1005A00008951092222410922E2410922F2481EA72
:1005B0008093242480E28093252410922624109294
:1005C0002724109228241092292482E090E080931E
:1005D0002A2490932B2410922C2410922D2480E016
:1005E00092ECA1E0B0E08093302490933124A0936A
:1005F0003224B0933324109234241092352488E0AE
:100600008093362460E374E280E00E94EE2580E06F
:100610000E94EF25882329F0909122249F5F9093D8
:1006200022240895FF920F931F93CF93DF9380911D
:10063000102381118BC00E94AD10C0911123D09165
:1006400012238823A9F00E94BA10C817D90709F409
:100650007DC0DFB7F894C0911323EC2FF0E0EE0FCC
:10066000FF1FEC5EFC4D80819181892B29F503C031
:100670000E94B510EACF80910D2390910E23019630
:1006800080930D2390930E230E94AD10811109C019
:1006900080910D2390910E238436910510F4DFBFD5
:1006A00055C00E94AD10882339F080910D239091A0
:1006B0000E238032934098F310920D2310920E2354
:1006C00080910F23811106C081E0C11180E08093E9
:1006D000132304C081E0C11180E0C82F81E0809322
:1006E0001023DFBFD0E08E01000F111FF801EC5E78
:1006F000FC4DFF24F394808191818034910531F485
:10070000F12C10921123109212230DC00E94AD10F3
:10071000882319F00E94BA1002C00E94B51080937D
:10072000112390931223F801EC5EFC4D208131815E
:10073000AE0186E0440F551F8A95E1F7485E5C4D97
:100740000DEA13E06F2D81E80E943E11DF91CF91F9
:100750001F910F91FF90089565CF811114C02091D2
:10076000132381E090E0222311F080E090E0880FD5
:10077000991FFC01EC5EFC4D1082118210920F2338
:10078000109210234FCF089590913D27892F8076A6
:1007900097FF0EC08032F1F580913E278132D1F56E
:1007A00080914327909144278730910599F526C081
:1007B000803281F580913E27803299F0823251F566
:1007C00060913F27617080E00E94F22560913F2791
:1007D0007091402776956795617080E00E94F325BF
:1007E00017C080914327909144278730910591F459
:1007F00020EC32E02093492730934A2720E334E26B
:100800002093452730934627809347279093482786
:1008100081E0089580E008952FB7F89440919923DE
:1008200050919A23E0919B23F0E0EE0FFF1FE456D6
:10083000FC4D80819181841B950B2FBF0895ECDFC7
:1008400021E0892B09F420E0822F08950F931F9354
:10085000CF93DF938FB7F89420919B2390919823A7
:10086000911110C06091992370919A23C22FD0E00A
:10087000FE01EE0FFF1FE456FC4D408151816417CD
:10088000750718F48FBF80E024C01092992310924E
:100890009A2391E0211190E090939B2391E0909313
:1008A00098238FBF80E0CBDF882319F080E00E947F
:1008B0008A26AE0186E0440F551F8A95E1F740561F
:1008C0005C4D0EE914E020E430E061E082E00E943B
:1008D0003E11DF91CF911F910F9108951092212425
:1008E0001092102310920F231092132310921423AE
:1008F0001092152310921623109217231092112391
:10090000109212238FDE1092982310929B23109244
:100910009C2310929D231092992310929A2396DF84
:10092000882359F0909121249F5F909321249091E6
:100930002124913011F49093202408950F931F9354
:10094000811126C080919B2321E0811120E030E0BD
:100950006115710589F4842F96E0220F331F9A9553
:10096000E1F7A90140565C4D0EE914E020E430E0C7
:1009700061E00E943E110CC0220F331FF901E456C2
:10098000FC4D60837183109298231F910F915ECF6D
:100990001F910F91089580E052CF1F93CF93DF9363
:1009A00011E080913624893009F010E0C0E0D0E0F9
:1009B0009FB7F8942091992330919A2380919B239B
:1009C0009FBF90E0FC01EE0FFF1FE456FC4D4081FD
:1009D00051812417350730F0809120248111E8CF10
:1009E00090E01AC0FC0196E0EE0FFF1F9A95E1F728
:1009F000E20FF31FE056FC4D8081C82B2F5F3F4F65
:100A00002093992330939A2321DF112321F0DC2FA7
:100A1000CC2710E0CDCFCE01DF91CF911F9108956B
:100A200080E0BBCF4FB7F89490911323E92FF0E00B
:100A3000EE0FFF1FEC5EFC4D20813181203431052B
:100A400089F48091102381110DC080910F238111B1
:100A500009C081E080930F23911180E080931323DC
:100A600020E030E04FBF80E490E0821B930B0895BC
:100A7000D9DF21E0892B09F420E0822F089580E05E
:100A8000F7CF1F93CF93DF9300D0CDB7DEB711E040
:100A900080913624893009F010E080E069837A8300
:100AA000E7DF69817A81811107C08091202481115B
:100AB000F4CF80E090E026C02FB7F894E0911323A4
:100AC000F0E0DF01AA0FBB1FAC5EBC4D8D919C9185
:100AD0001197AC014F5F5F4F4D935C9336E0EE0F83
:100AE000FF1F3A95E1F78E0F9F1FFC01E85EFC4D5A
:100AF00060832FBF112321F0672F770F770BCCCFA7
:100B000081E090E00F900F90DF91CF911F910895B9
:100B1000BC0180E0B6CF80913F278F770C94AF1057
:100B200090913F24911102C080E00895E0913D240E
:100B3000F0913E240190F081E02D94818917A0F777
:100B4000E0933B24F0933C24228133812E0F3F1FFE
:100B5000E217F30798F49181943061F4928189133C
:100B600009C09381691306C0E0933B24F0933C24B1
:100B700081E008959081E90FF11DEACFE0933B24D5
:100B8000F0933C24D1CFE0913D24F0913E2401909C
:100B9000F081E02D228133812E0F3F1FFC01408127
:100BA000E40FF11DE217F30748F48181843031F03E
:100BB000853039F08081E80FF11DF4CF80E090E0BE
:100BC0000895CF0108951F93CF93DF93182FA8DFC7
:100BD000882341F1C0913B24D0913C24CE01D3DF46
:100BE000EC01892B49F04C815D816B818A810E94E7
:100BF000C4108111F3CF16C0E0913D24F0913E2442
:100C000092818381E92FF82FE10FF11DE10FF11D92
:100C10000190F081E02D0190F081E02DDF91CF91E6
:100C20001F91099480E0DF91CF911F910895EF9279
:100C3000FF921F93CF93DF93C82F60E071DF811184
:100C400002C010E02DC0E0913D24F0913E2492813D
:100C50008381E92FF82FEC0FF11DEC0FF11DE080DF
:100C6000F180D7011696ED91FC9117970995682FA1
:100C70008C2F56DF182F882321F3C0913B24D0916D
:100C80003C24CE0180DFEC01892B21F08A810E9477
:100C9000FB11F7CFD7011296ED91FC9113970995AF
:100CA000812FDF91CF911F91FF90EF9008950C94C9
:100CB0003910CF9380913F24811108C010923F24B6
:100CC0001092402410924124CF910895C0E0E09109
:100CD0003D24F0913E240190F081E02D8481C817DD
:100CE00068F78C2FA4DFCF5FF2CFCF9380913F24A2
:100CF0008823F1F0C0E0E0913D24F0913E24A081F2
:100D0000B18114968C91C81798F492818381E92F50
:100D1000F82FEC0FF11DEC0FF11D0190F081E02D8B
:100D20000084F185E02D309709F00995CF5FE3CF7E
:100D3000CF910895EF92FF920F931F93CF93DF937C
:100D40001F92CDB7DEB71092472710924827109216
:100D5000492710924A2710924B2710924C278091D6
:100D60003D2787FF07C02091432730914427232B3D
:100D700009F449C2982F907609F0D4C187FF01C1C8
:100D800020914327309144272115310509F4CAC128
:100D90008F7109F0A2C080913E27863071F08830B3
:100DA00009F490C08111BEC12230310509F0BAC1E9
:100DB00062E070E080E494E28DC080913F279091E2
:100DC0004027292F332722303105A1F064F4213048
:100DD000310509F0A7C18091F5209091F620DC0142
:100DE0006C9170E05CC02330310591F12F303105FA
:100DF00011F198C1E091F520F091F6202189821738
:100E000008F090C19927880F991F880F991FE091CA
:100E1000F720F091F820E80FF91F80819181FC0103
:100E2000628173810E94BD10E0914527F0914627B1
:100E300082E0818336C08091F9209091FA2000975A
:100E400009F470C1DC0112966D917C91139727C053
:100E500099278130910569F038F0029709F062C155
:100E60006DE088E390E208C064E070E084E590E221
:100E700016C06CE086E490E2282FAEE1B0E2FC01FF
:100E8000819190E08D939D938E2F821B8617C0F3E6
:100E9000660F6E5F60931C2070E08CE190E20E9410
:100EA000BD1080914327909144272091472730918E
:100EB00048278217930708F0A4C18093472790938F
:100EC00048279FC12130310509F02CC161E070E055
:100ED0008FE394E20E94BD1094C18130C9F58091E6
:100EE0003E278A3009F01EC12130310509F01AC1B0
:100EF00080913F24882309F415C1E0904127F090A8
:100F0000422700913D2410913E24D801ED91FC919F
:100F10008481E81608F006C160E08E2D01DE88238A
:100F200009F400C1FF24EE0CFF1CF80182819381BB
:100F30008E0D9F1DDC01ED91FC910680F781E02D67
:100F4000099580933A2461E070E08AE394E2C2CF8D
:100F5000823009F0E7C080913E278111E3C0223042
:100F6000310509F0DFC0809141270E941E1190E0F9
:100F7000809338249093392462E070E088E394E20F
:100F8000A9CF8F7109F07EC080913E27833009F48C
:100F9000C9C018F48130A1F0C5C0853019F089307E
:100FA00039F1C0C08091432790914427892B09F0E3
:100FB000B9C08BE895E08093492790934A2721C1D7
:100FC0008091432790914427892B09F0ABC08091F1
:100FD0003F2790914027019709F0A4C080914024B9
:100FE000909141248D7F809340249093412409C1A6
:100FF0008091432790914427892B09F093C00E9448
:10100000B210882309F48EC020913F2730914027E9
:101010003327E091F520F091F620818990E0821746
:10102000930708F47FC045DE80913F2790914027C9
:1010300080933F24882309F4E4C099278150904C81
:10104000880F991F880F991F2091F7203091F82061
:10105000820F931F80933D2490933E2410E0E091F3
:101060003D24F0913E240190F081E02D84811817F9
:1010700008F0C7C060E0812FA6DD882309F452C0C4
:101080001F5FEDCF8130F1F480913E278B3009F066
:1010900049C08091432790914427892B09F042C091
:1010A00080913F24882309F43DC01091412760912D
:1010B0003F27812F6983BBDD6981882399F1812FC7
:1010C00082DD2EC0823071F580913E27813019F08B
:1010D000833091F027C08091432790914427892B3A
:1010E00009F580913F2790914027892BD9F4809171
:1010F00041270E94251114C08091432790914427D5
:10110000892B81F480913F2790914027892B51F4BE
:10111000809141270E94CB11809141270E940412A7
:1011200081116FC080913D278F718130B9F5809119
:101130003F24882399F1E0904127F09042270091C5
:101140003D2410913E24D801ED91FC918481E81654
:1011500028F560E08E2DE4DC882301F1F701FF27FC
:10116000EE0FFF1FD80112968D919C911397E80FF7
:10117000F91F00811181D8011696ED91FC91179706
:101180000995682F8E2DCCDC882341F0D801149668
:10119000ED91FC9115970995811133C080913D2700
:1011A0008F71823081F580913F24882361F1F12C89
:1011B000E0913D24F0913E24A081B18114968C9160
:1011C000F81608F592818381E92FF82FEF0DF11DB4
:1011D000EF0DF11D00811181D8011696ED91FC9162
:1011E00017970995682F8F2D9BDC882361F0D80114
:1011F0001496ED91FC9115970995811102C0F39415
:10120000D7CF81E001C080E00F90DF91CF911F9197
:101210000F91FF90EF9008951F920F920FB60F92CB
:1012200011242F933F934F935F936F937F938F93EB
:101230009F93AF93BF93EF93FF93E0917424F0914A
:101240007524309709F00995FF91EF91BF91AF9107
:101250009F918F917F916F915F914F913F912F91CE
:101260000F900FBE0F901F9018951F920F920FB600
:101270000F9211242F933F934F935F936F937F931C
:101280008F939F93AF93BF93EF93FF93E09172245B
:10129000F0917324309709F00995FF91EF91BF9178
:1012A000AF919F918F917F916F915F914F913F91FE
:1012B0002F910F900FBE0F901F9018951F920F92B5
:1012C0000FB60F9211242F933F934F935F936F9319
:1012D0007F938F939F93AF93BF93EF93FF93E0918F
:1012E0007024F0917124309709F00995FF91EF91E6
:1012F000BF91AF919F918F917F916F915F914F912E
:101300003F912F910F900FBE0F901F9018951F9235
:101310000F920FB60F9211242F933F934F935F9329
:101320006F937F938F939F93AF93BF93EF93FF93AD
:10133000E0916E24F0916F24309709F00995FF91A8
:10134000EF91BF91AF919F918F917F916F915F913D
:101350004F913F912F910F900FBE0F901F901895B6
:101360001F920F920FB60F9211242F933F934F931A
:101370005F936F937F938F939F93AF93BF93EF93FD
:10138000FF93E0916C24F0916D24309709F009955A
:10139000FF91EF91BF91AF919F918F917F916F914D
:1013A0005F914F913F912F910F900FBE0F901F9023
:1013B00018951F920F920FB60F9211242F933F93FF
:1013C0004F935F936F937F938F939F93AF93BF934D
:1013D000EF93FF93E0916A24F0916B24309709F02A
:1013E0000995FF91EF91BF91AF919F918F917F915F
:1013F0006F915F914F913F912F910F900FBE0F9082
:101400001F9018951F920F920FB60F9211242F93D1
:101410003F934F935F936F937F938F939F93AF937C
:10142000BF93EF93FF93E0916824F0916924309784
:1014300009F00995FF91EF91BF91AF919F918F9125
:101440007F916F915F914F913F912F910F900FBEC0
:101450000F901F9018951F920F920FB60F921124A4
:101460002F933F934F935F936F937F938F939F93AC
:10147000AF93BF93EF93FF93E0916624F0916724BD
:10148000309709F00995FF91EF91BF91AF919F912E
:101490008F917F916F915F914F913F912F910F901D
:1014A0000FBE0F901F9018951F920F920FB60F92BC
:1014B00011242F933F934F935F936F937F938F9359
:1014C0009F93AF93BF93EF93FF93E0916424F091C8
:1014D0006524309709F00995FF91EF91BF91AF9185
:1014E0009F918F917F916F915F914F913F912F913C
:1014F0000F900FBE0F901F9018951F920F920FB66E
:101500000F9211242F933F934F935F936F937F9389
:101510008F939F93AF93BF93EF93FF93E0916224D8
:10152000F0916324309709F00995FF91EF91BF91F5
:10153000AF919F918F917F916F915F914F913F916B
:101540002F910F900FBE0F901F9018951F920F9222
:101550000FB60F9211242F933F934F935F936F9386
:101560007F938F939F93AF93BF93EF93FF93E091FC
:101570006024F0916124309709F00995FF91EF9173
:10158000BF91AF919F918F917F916F915F914F919B
:101590003F912F910F900FBE0F901F9018951F92A3
:1015A0000F920FB60F9211242F933F934F935F9397
:1015B0006F937F938F939F93AF93BF93EF93FF931B
:1015C000E0915E24F0915F24309709F00995FF9136
:1015D000EF91BF91AF919F918F917F916F915F91AB
:1015E0004F913F912F910F900FBE0F901F90189524
:1015F0001F920F920FB60F9211242F933F934F9388
:101600005F936F937F938F939F93AF93BF93EF936A
:10161000FF93E0915C24F0915D24309709F00995E7
:10162000FF91EF91BF91AF919F918F917F916F91BA
:101630005F914F913F912F910F900FBE0F901F9090
:1016400018951F920F920FB60F9211242F933F936C
:101650004F935F936F937F938F939F93AF93BF93BA
:10166000EF93FF93E0915A24F0915B24309709F0B7
:101670000995FF91EF91BF91AF919F918F917F91CC
:101680006F915F914F913F912F910F900FBE0F90EF
:101690001F9018951F920F920FB60F9211242F933F
:1016A0003F934F935F936F937F938F939F93AF93EA
:1016B000BF93EF93FF93E0915824F0915924309712
:1016C00009F00995FF91EF91BF91AF919F918F9193
:1016D0007F916F915F914F913F912F910F900FBE2E
:1016E0000F901F9018951F920F920FB60F92112412
:1016F0002F933F934F935F936F937F938F939F931A
:10170000AF93BF93EF93FF93E0915624F09157244A
:10171000309709F00995FF91EF91BF91AF919F919B
:101720008F917F916F915F914F913F912F910F908A
:101730000FBE0F901F9018951F920F920FB60F9229
:1017400011242F933F934F935F936F937F938F93C6
:101750009F93AF93BF93EF93FF93E0915424F09145
:101760005524309709F00995FF91EF91BF91AF9102
:101770009F918F917F916F915F914F913F912F91A9
:101780000F900FBE0F901F9018951F920F920FB6DB
:101790000F9211242F933F934F935F936F937F93F7
:1017A0008F939F93AF93BF93EF93FF93E091522456
:1017B000F0915324309709F00995FF91EF91BF9173
:1017C000AF919F918F917F916F915F914F913F91D9
:1017D0002F910F900FBE0F901F9018951F920F9290
:1017E0000FB60F9211242F933F934F935F936F93F4
:1017F0007F938F939F93AF93BF93EF93FF93E0916A
:101800005024F0915124309709F00995FF91EF9100
:10181000BF91AF919F918F917F916F915F914F9108
:101820003F912F910F900FBE0F901F9018951F9210
:101830000F920FB60F9211242F933F934F935F9304
:101840006F937F938F939F93AF93BF93EF93FF9388
:10185000E0914E24F0914F24309709F00995FF91C3
:10186000EF91BF91AF919F918F917F916F915F9118
:101870004F913F912F910F900FBE0F901F90189591
:101880001F920F920FB60F9211242F933F934F93F5
:101890005F936F937F938F939F93AF93BF93EF93D8
:1018A000FF93E0914C24F0914D24309709F0099575
:1018B000FF91EF91BF91AF919F918F917F916F9128
:1018C0005F914F913F912F910F900FBE0F901F90FE
:1018D00018951F920F920FB60F9211242F933F93DA
:1018E0004F935F936F937F938F939F93AF93BF9328
:1018F000EF93FF93E0914A24F0914B24309709F045
:101900000995FF91EF91BF91AF919F918F917F9139
:101910006F915F914F913F912F910F900FBE0F905C
:101920001F9018951F920F920FB60F9211242F93AC
:101930003F934F935F936F937F938F939F93AF9357
:10194000BF93EF93FF93E0914824F091492430979F
:1019500009F00995FF91EF91BF91AF919F918F9100
:101960007F916F915F914F913F912F910F900FBE9B
:101970000F901F9018951F920F920FB60F9211247F
:101980002F933F934F935F936F937F938F939F9387
:10199000AF93BF93EF93FF93E0914624F0914724D8
:1019A000309709F00995FF91EF91BF91AF919F9109
:1019B0008F917F916F915F914F913F912F910F90F8
:1019C0000FBE0F901F9018951F920F920FB60F9297
:1019D00011242F933F934F935F936F937F938F9334
:1019E0009F93AF93BF93EF93FF93E0914424F091C3
:1019F0004524309709F00995FF91EF91BF91AF9180
:101A00009F918F917F916F915F914F913F912F9116
:101A10000F900FBE0F901F9018951F920F920FB648
:101A20000F9211242F933F934F935F936F937F9364
:101A30008F939F93AF93BF93EF93FF93E0914224D3
:101A4000F0914324309709F00995FF91EF91BF91F0
:101A5000AF919F918F917F916F915F914F913F9146
:101A60002F910F900FBE0F901F901895CF93CFB767
:101A7000F894811528E0920711F461E005C08034E4
:101A800028E0920739F462E083E00E949C2464E03D
:101A900083E01AC0811529E0920711F461E005C0C6
:101AA000803429E0920739F462E084E00E949C24AB
:101AB00064E084E009C081159A4081F461E085E02A
:101AC0000E949C2464E085E00E949C249FB7F894C7
:101AD0008091682A8F5F8093682A9FBFCFBFCF9184
:101AE0000895811528E0920729F460937424709377
:101AF00075240895803428E0920729F460936824BF
:101B0000709369240895811529E0920729F4609360
:101B10006024709361240895803429E0920729F4A9
:101B20006093542470935524089581159A4021F4AC
:101B300060934C2470934D240895282F2F70082E05
:101B4000000C990B392F331F3327331F832F90E05D
:101B5000820F911D820F911D23E0880F991F2A95F6
:101B6000E1F784599A4D08950F93E8ECF4E08081F1
:101B70008F7D808380818F7D8083E4E7F5E202E0C2
:101B80000593109276251092772500E2069300E4E3
:101B90000693ECE6F5E200E2069300E40693EDE33B
:101BA000F7E214861586168617861286138610921B
:101BB0005F250F9108950F9385E080935F25E5E7FA
:101BC000F5E204E00593EDE6F5E204E005930F91FC
:101BD00008950F9383E080935F25109276251092ED
:101BE0007725E4E7F5E202E006930F910895E0918E
:101BF0004927F0914A27309709F009940895282F32
:101C00002F70082E000C990B392F331F3327331FE9
:101C1000832F90E0820F911D820F911D029749E062
:101C2000489F9001499F300D1124C90189509B4D57
:101C300008959091A025811108C0992381F02FB7B4
:101C4000F8949091682A915007C0911108C02FB75D
:101C5000F8949091682A9F5F9093682A2FBF809391
:101C6000A02508958F929F92AF92BF92DF92EF923C
:101C7000FF920F931F93CF93DF93D82EC0DFEC0119
:101C80008D2D5BDF7C01DC011196EC91E770E1505A
:101C9000E73040F4F0E0EE0FFF1FE656FD4D008107
:101CA000118102C008E010E0ED81FE812B813C81B2
:101CB0004881D701D7FE4AC016968D919C911797FF
:101CC0008E0F9F1F8D839E838217930771F1281BB0
:101CD000390B2115B4E03B0740F02FEF33E0C90189
:101CE000B8010E949327281B390B41FF0BC0C90183
:101CF000B8010E949327AC0191E0452B09F090E0D8
:101D0000892F01C080E0988180FB91F99883F701C9
:101D1000168217822283338329813A818D819E81A5
:101D2000820F931F848395830EC041FF74C04D7F43
:101D30004883D70116961D921C92179712961D92F2
:101D40001C921397F70102E006937EC01296AD90A5
:101D5000BC90139742FF12C089809A80C901B801D4
:101D60000E949327B0E4DB9EB0011124695C7B4D97
:101D7000AC01C4018E0F9F1F0E9475298D819E8129
:101D80008A0D9B1D8D839E832B813C8128173907EB
:101D900010F42D833E83F70186819781A816B9063A
:101DA000D1F58D819E8182179307A9F1281B390BEC
:101DB0002115F4E03F0710F02FEF33E0C901B8011F
:101DC0000E949327281B390BD70112961D921C9253
:101DD00013972017310778F4888184608883B0E4F2
:101DE000DB9EC0011124895C9B4DF70184839583A0
:101DF00006831783A7CF49815A818D819E81840FE5
:101E0000951FD70114968D939C93159716962D9335
:101E10003C93179797CF888180FF16C08E7F888369
:101E2000EF81F885309781F06D817E814D2D80E0C6
:101E3000DF91CF911F910F91FF90EF90DF90BF90B6
:101E4000AF909F908F900994DF91CF911F910F9148
:101E5000FF90EF90DF90BF90AF909F908F9008958C
:101E60000F93CF93DF9380915F25833029F4BFDEFA
:101E7000DF91CF910F9178CE20915B2530915C2539
:101E8000C0914727D0914827C21BD30B61F58091A1
:101E90005D2590915E25820F931F80935D25909321
:101EA0005E2520914327309144272817390721F0D8
:101EB00080917624882331F084E080935F25ECE6DE
:101EC000F5E236C0E0914B27F0914C27309799F01E
:101ED0000995882381F010925B2510925C25C091B2
:101EE0004727D0914827C034D10528F01092762496
:101EF000C0E4D0E003C081E080937624C0937625CF
:101F0000D093772580915B2590915C252091452782
:101F100030914627280F391F209378253093792553
:101F2000C80FD91FC0935B25D0935C25E4E7F5E289
:101F300002E00693DF91CF910F9108950F93CF9315
:101F4000DF931F92CDB7DEB78091CC0480FF66C0CF
:101F500021E02093CC048CE695E2FC0100E8069396
:101F6000E4E7F5E200E806932093CA04FC0100E1EF
:101F7000069380915F25882329F08350823008F4EE
:101F800036DEF2DD80916E2590916F25089709F07D
:101F900047C088E0EBE1F5E2ADE3B7E201900D92D6
:101FA0008A95E1F78091C80480628093C80480918B
:101FB000C80480628093C8040E949A06811102C0FE
:101FC000FADD2EC090913D2797FF0EC010925D253F
:101FD00010925E2510925B2510925C2592E0909302
:101FE0005F2589833DDF08C0209143273091442736
:101FF000232B21F48983EDDD898113C010925D25A7
:1020000010925E2510925B2510925C2591E09093D2
:102010005F25ECE6F5E202E0069303C080E001C034
:1020200081E00F90DF91CF910F910895CF93CFB7BB
:10203000F89481E0FEDDEAECF4E080E4808380E265
:102040008083E1ECF4E0808181608083A9ECB4E0DE
:102050008C9182608C93E8ECF4E0808180648083D2
:102060008C9181608C93808180688083CFBFCF9179
:102070000895CF931092600080E30E94A82480917D
:10208000C00480648093C00481E080936000CFB777
:10209000F89410926D251092752510927D2510925E
:1020A000852510928D25109295258091F7248E7F9D
:1020B0008093F724809100258E7F80930025809166
:1020C00009258E7F80930925809112258E7F80932C
:1020D00012256AE170E082E00E94F3248F3F09F448
:1020E0008FE18093FA046BE170E082E00E94F324B8
:1020F0008F3F09F48FE18093FB048091C0048260DC
:102100008093C0048091C00480688093C004809153
:10211000C00480618093C0048CE695E28093C6047D
:102120009093C7048091C00480628093C0048FEFB5
:102130008093C5048091C80481608093C804109284
:10214000A0259FB7F89480916C2A8F5F80936C2AAA
:102150009FBF6CDFCFBFCF91089580E0089580933B
:10216000C30408958091C304089580919C259091A3
:102170009D25089580E090E00895EDE3F7E28087E3
:1021800091876287738708950F931F93CF93DF938F
:102190001F92CDB7DEB78A016983CFDCFC01818154
:1021A000807C6981811141C06370613019F020F039
:1021B00090E803C090EC01C090E400381105E9F00C
:1021C00058F400321105A9F000341105A1F00031D6
:1021D0001105C9F481E018C0011582E0180779F0F3
:1021E0000F3F83E0180769F00115114061F485E0A5
:1021F0000BC082E009C083E007C084E005C086E030
:1022000003C087E001C080E0118226E02083892B93
:1022100081838181807C803C21F48181877087303B
:1022200031F081818062818302C080E001C081E061
:102230000F90DF91CF911F910F9108957EDCFC01EB
:10224000818182FB882780F90895CF93C82F75DCA0
:10225000FC01818182FF0FC091819B7F91838C2F34
:10226000CEDCFC01908190FF06C09E7F90830780AA
:10227000F085E02D099581E0CF9108958F929F928E
:10228000AF92BF92DF92EF92FF920F931F93CF9383
:10229000DF931F92CDB7DEB7D82E5A01790169833B
:1022A000AEDC4C018D2D49DC9C01DC0111968C913A
:1022B0001197807C6981882309F45FC011968C9105
:1022C0001197807C803C21F011968C9182FD55C045
:1022D0009FB7F894F401808180FF02C09FBF4DC07A
:1022E000816080839FBFF401A182B282E382F48285
:1022F000158216820783108791E0611104C0E114F2
:10230000F10409F090E0D4018C9190FB81F98B7F6E
:102310008C93D7FE04C0F901168217822AC0D90116
:1023200011968C911197807C803CD1F41196EC91A0
:10233000E770E150E73040F4F0E0EE0FFF1FE656A3
:10234000FD4D6081718102C068E070E0C7010E94AC
:102350009327892B29F0F40180818E7F80830DC023
:10236000D90112961D921C92139716961D921C92DB
:1023700017978D2D77DC81E001C080E00F90DF9111
:10238000CF911F910F91FF90EF90DF90BF90AF9092
:102390009F908F900895EF92FF920F93CF93C82F45
:1023A000CCDB7C018C2F2BDCDC01F70102E00593F8
:1023B0009C9190FF1BC09E7F9C931796ED91FC9182
:1023C0001897309799F0D701C7FF05C016966D9101
:1023D0007C91179704C012966D917C9113974C2FA6
:1023E00081E0CF910F91FF90EF900994CF910F91E1
:1023F000FF90EF900895CF93C82FCDDF8C2F9DDBFA
:10240000FC011182CF9108950F93CF93C82F95DBD4
:10241000FC0191819460918301E006938C2FBBDFD6
:1024200081E0CF910F9108951F920F920FB60F92F6
:1024300011240F932F933F934F935F936F937F9349
:102440008F939F93AF93BF93EF93FF938091CB04B0
:1024500087FF06C080E88093CA040E9475067DC08D
:102460008091CB0482FF18C084E08093CA048091DD
:10247000742586FF72C08091CC0481FD6EC05EDD44
:1024800081116BC080915F25813011F4A2DB65C0A2
:10249000843009F062C021C08091CB0481FF26C046
:1024A00082E08093CA0480916C2586FF56C080919B
:1024B000CC0481FD52C042DD81114FC080915F2567
:1024C000823041F484E080935F25ECE6F5E202E09F
:1024D000069343C0833009F040C0E5E7F5E204E02D
:1024E0000593EDE6F5E204E0059337C08091CB0457
:1024F00084FF21C080E18093CA0481E04CDF81E841
:102500004ADF0E9459061092C30410926D2596E08E
:1025100090936C2583E480936D251092752590939C
:102520007425809375258BE195E2809370259093B7
:1025300071251ADB12C08091CB0486FF05C080E4B0
:102540008093CA0480E008C08091CB0485FF05C059
:1025500080E28093CA0481E06CDBFF91EF91BF9130
:10256000AF919F918F917F916F915F914F913F912B
:102570002F910F910F900FBE0F901F9018951F92E3
:102580000F920FB60F9211240F931F932F933F9327
:102590004F935F936F937F938F939F93AF93BF936B
:1025A000CF93DF93EF93FF938091CC0481FF1AC008
:1025B00082E08093CC048091C5048195880FECE67D
:1025C000F5E2E81BF109208131812C56354283E088
:1025D000369527958A95E1F7822F869520FD06C0CE
:1025E000C0E005C0ABDC882319F387C0C0E8C80F82
:1025F0008C2FA3DAFC01208125FF7FC000E2069327
:10260000C11175C080915F25843019F4F0DAACDA1D
:1026100074C000916E2510916F258091472790918D
:102620004827C0915B25D0915C259E01200F311F6A
:102630008217930718F48C010C1B1D0B8091452702
:1026400090914627A8016BE175E28C0F9D1F0E94B7
:102650007529C00FD11FC0935B25D0935C25003432
:10266000110569F480915D2590915E258C0F9D1F69
:1026700020914327309144278217930788F0C09315
:102680004727D0934827E0914B27F0914C2730976C
:1026900029F00995811102C08EDA2FC09ADA2DC077
:1026A00080914727909148278C179D07D9F4E09196
:1026B0004B27F0914C27309779F30995882361F3E4
:1026C00020915D2530915E2580915B2590915C2560
:1026D000820F931F80935D2590935E2510925B255A
:1026E00010925C25ECE6F5E202E0069306C0C038E5
:1026F00011F4B6DB02C08C2FB5DAFF91EF91DF91B8
:10270000CF91BF91AF919F918F917F916F915F9189
:102710004F913F912F911F910F910F900FBE0F90EE
:102720001F9018954BE150E060E070E08DE497E277
:102730000C94512C4BE150E060E070E08DE497E2A6
:102740000E94462C6DE477E288EA92E20E947E299C
:10275000892B99F068EA72E28DE497E20E9487295A
:102760006DEA72E28FE597E20E9487296DEA72E2D4
:1027700086E597E20E948729D5CF0895EF920F93BF
:102780009FE3989FF0011124E859F84DDF011D9255
:102790009A95E9F7608341835283238334830583C9
:1027A000E6820F91EF900895FC016623D9F0613025
:1027B00089F5A781B08512968C9112978F93119607
:1027C0008C918F9380811F928F9384ED92E09F93E1
:1027D0008F930E9446230F900F900F900F900F90B1
:1027E0000F900895A781B08512968C9112978F93C0
:1027F00011968C918F9380811F928F938AEC92E037
:102800009F938F930E9446230F900F900F900F90ED
:102810000F900F900895EF920F938091680682FDBC
:1028200007C08091680683FD03C084E08093582030
:1028300080915820853040F153E0E52E02E020E6FB
:1028400036E040E656E068E087E098DFEE24E39467
:1028500000E020E636E040E656E067E086E08EDF06
:1028600067E0E62E06E020E436E040E456E066E06D
:1028700085E084DF75E0E72E04E020E436E040E404
:1028800056E065E084E07ADF83E0E82E02E020E4B1
:1028900036E040E456E064E083E070DFEE24E39449
:1028A00000E020E436E040E456E063E082E066DFEA
:1028B00093E0E92E02E020E236E040E256E062E0FA
:1028C00081E05CDFEE24E39400E020E236E040E2C9
:1028D00056E061E080E052DFF1D3DC01EC91F0E002
:1028E000EE0FFF1FE05AF64D80839183E2D7DC01A3
:1028F000EC91F0E0EE0FFF1FE05AF64D80839183DC
:102900003FD6DC01EC91F0E0EE0FFF1FE05AF64DF0
:102910008083918362D5DC01EC91F0E0EE0FFF1F24
:10292000E05AF64D808391830E94CE1CDC01EC912D
:10293000F0E0EE0FFF1FE05AF64D8083918347D3FE
:10294000DC01EC91F0E0EE0FFF1FE05AF64D8083C2
:1029500091830CD5DC01EC91F0E0EE0FFF1FE05A03
:10296000F64D8083918333D7DC01EC91F0E0EE0FDC
:10297000FF1FE05AF64D808391830E94961DDC0173
:10298000EC91F0E0EE0FFF1FE05AF64D808391834B
:10299000CCD5DC01EC91F0E0EE0FFF1FE05AF64DD4
:1029A000808391830E941821DC01EC91F0E0EE0F0E
:1029B000FF1FE05AF64D80839183E8D3DC01EC9150
:1029C000F0E0EE0FFF1FE05AF64D808391830F91E8
:1029D000EF900895FC0143815481268165818181B6
:1029E00092810C9465220F931F93CF93DF9300E79E
:1029F00019E2F801C191D1918F01209729F0EF815F
:102A0000F8850995811107C0FAE200351F0789F79B
:102A100080E090E001C0CE01DF91CF911F910F9136
:102A20000895BF92CF92DF92EF92FF920F931F9380
:102A3000CF93DF93C8E6D7E200E010E2EE24E39400
:102A4000F12CBB24BA94C801805090426C01809153
:102A5000582090E0C816D9068CF58F819885892B6F
:102A600049F5CE01B7DFBFDF8F839887892B11F13E
:102A700061E0CE0199DEEF81F8850580F681E02DD9
:102A8000309711F0CE010995C70101C0880FCA9493
:102A9000EAF790910C23892B80930C23EF81F88522
:102AA0000184F285E02D309719F060E0CE010995A0
:102AB000F801B0820F5F1F4FEF96C5CFDF91CF9126
:102AC0001F910F91FF90EF90DF90CF90BF900895EE
:102AD0004F925F926F927F92AF92BF92CF92DF92AE
:102AE000EF92FF920F931F93CF93DF932B013C0143
:102AF0000091A125A02EB12C8FE3089F8001112405
:102B0000E801C859D84DCE0165DFEF80F884E114A3
:102B1000F10409F48FC0D7011796ED91FC91189735
:102B20000995811127C0EF81F88582818F9381817A
:102B30008F9388811F928F938AEC92E09F938F935B
:102B40000E94462381E090E00090A12502C0880FFA
:102B5000991F0A94E2F7809590910C238923809322
:102B60000C231F8218860F900F900F900F900F90DC
:102B70000F9060C0D7011B96ED91FC911C97309788
:102B8000D9F06E01BDE3CB0ED11CD6018C91882308
:102B900099F0B8016358784D4EADCE010995F60114
:102BA0008081882311F081508083E091A125F0E09D
:102BB000E050F04E8FEF8083D70119968D919C9154
:102BC0001A97892BB9F18091A225811133C08FE327
:102BD0008A9DF0018B9DF00D1124E859F84D8189F3
:102BE0009289A389B489B301A201481B590B6A0BCE
:102BF0007B0BD70113968D919C911497A0E0B0E0C8
:102C0000481759076A077B07A8F0418A528A638AE6
:102C1000748AD7011996ED91FC911A9760E0CE0164
:102C20000995882339F0E091A125F0E0E050F04EBD
:102C30008FEF80838091A1258F5F8093A1252091C4
:102C4000582030E090E08217930714F01092A125ED
:102C5000DF91CF911F910F91FF90EF90DF90CF9078
:102C6000BF90AF907F906F905F904F9008958FE5E9
:102C700097E29F938F938DEB92E09F938F930E94A7
:102C8000462386E597E29F938F9380EB92E09F9394
:102C90008F930E9446238DB79EB708968DBF9EBF27
:102CA00008950F931F93CF93DF93CDB7DEB72D9782
:102CB000CDBFDEBF8C879D87DC012C912137D1F4FD
:102CC0009091A22581E089278093A225882349F04D
:102CD00080EA92E09F938F930E9446230F900F907B
:102CE000DDC081E992E09F938F930E9446230F906D
:102CF0000F90D4C0253639F508E617E2F801878130
:102D00009085892BC9F061E0C8014EDDD801179686
:102D1000ED91FC91189781859285892B69F0C80106
:102D200059DED8011796ED91FC9118970184F28530
:102D3000E02D61E0C8010995015C1F4FB9E2003642
:102D40001B07E1F6ABC0263709F03FC080E792E0F1
:102D50009F938F930E94462388EA92E29F938F93DA
:102D600080E692E09F938F930E944623CE010196C6
:102D70000E94CC248F811F928F938E811F928F93FC
:102D80008D811F928F938C811F928F938B811F92C5
:102D90008F938A811F928F9389811F928F938B8546
:102DA0001F928F938A851F928F9389851F928F938D
:102DB00088851F928F9387E292E09F938F930E9462
:102DC000462355DFCDBFDEBF69C02E36B1F5029672
:102DD0008C879D8765EB72E2CE010C960E949D293F
:102DE000DC018C918436A9F0853729F565EB72E218
:102DF000CE010C960E949D290097E9F048E050E032
:102E0000BC018FE597E20E948E29109267278ADC29
:102E100012C065EB72E2CE010C960E949D290097CC
:102E200051F048E050E0BC0186E597E20E948E290F
:102E300010925E2777DC1BDF31C0203749F5029600
:102E40008C879D8765EB72E2CE010C960E949D29CE
:102E50000E94582981110EC081E192E09F938F93C7
:102E60000E944623809164068061809364060F90DF
:102E70000F9014C08CEF91E09F938F930E94462394
:102E8000809164068F7E809364060F900F9006C039
:102E9000243621F4809158200E9473232D96CDBFB3
:102EA000DEBFDF91CF911F910F91089589E20C94BD
:102EB000722243E060E889E20E94CE2245ED61E89B
:102EC00089E20C94CE229F92AF92BF92CF92DF9272
:102ED000EF92FF920F931F93CF93DF93EC01962E07
:102EE00060E889E20E948722833011F0CE01E1DFA1
:102EF00081E0898764E989E20E94BA22B82EA92E6E
:102F000066E989E20E94BA227C0168E989E20E94AE
:102F1000BA228C016AE989E20E94BA226C01EA8530
:102F2000FB854C855D852E853F8591101FC0BF01B7
:102F30006E197F0977FF03C071956195710966303D
:102F40007105A4F4401B510B57FF03C051954195E7
:102F500051094630510554F42C193D0937FF03C07F
:102F60003195219531092630310524F1AF92BF9278
:102F7000DF92CF921F930F93FF92EF92EF81F8852C
:102F800082818F9381818F9388811F928F938EEDA1
:102F900092E09F938F930E944623EA86FB860C87DC
:102FA0001D87CE86DF868DB79EB70E968DBF9EBFDE
:102FB00081E001C080E0DF91CF911F910F91FF90E0
:102FC000EF90DF90CF90BF90AF909F90089589E5EC
:102FD00090E20895FF920F931F93CF93DF938C019C
:102FE000F62E60E085E10E94A422EC01D80119963A
:102FF0002D913C911A978E3F934011F4CFEFD3E07F
:10300000F11016C0C9018C1B9D0B97FF03C0919551
:1030100081959109059764F4209719F4232B41F4C5
:1030200025C0CF3FE3E0DE0709F52F3F3340F1F045
:10303000DF93CF93D8011796ED91FC911897828179
:103040008F9381818F938C911F928F9384EF92E065
:103050009F938F930E944623F801C187D2878DB733
:103060009EB708968DBF9EBF81E001C080E0DF91D2
:10307000CF911F910F91FF90089585E10C947222DA
:103080001F93CF93DF93EB01142F488162E085E11A
:103090000E94CE22888180FF0DC0163059F42296FE
:1030A00013E048812296612F85E10E94CE221F5FA6
:1030B0001830B9F7DF91CF911F91089586E690E21D
:1030C0000895CF92DF92EF92FF920F931F93CF93C9
:1030D000DF93EC01062F60E082E10E948722182F27
:1030E00061E082E10E94A4227C0163E082E10E940F
:1030F000A4226C01117089854A855B852C853D85EC
:10310000011116C04E195F0957FF03C05195419533
:1031100051094330510564F42C193D0937FF03C0B0
:103120003195219531092330310514F4811709F1C6
:10313000DF92CF92FF92EF921F921F93EF81F8855B
:1031400082818F9381818F9388811F928F9381E0F9
:1031500093E09F938F930E9446231987EA86FB860C
:10316000CC86DD868DB79EB70C968DBF9EBF81E065
:1031700001C080E0DF91CF911F910F91FF90EF9000
:10318000DF90CF90089582E10C94722283E790E261
:10319000089589E30C94722243E060E889E30E9479
:1031A000CE224DEE61E889E30E94CE2240E067E83E
:1031B00089E30C94CE225F926F927F928F929F92BE
:1031C000AF92BF92CF92DF92EF92FF920F931F9335
:1031D000CF93DF93EC01562E60E889E30E948722AB
:1031E000833011F0CE01D8DF198664E989E30E94AB
:1031F000BA22182F092F66E989E30E94BA22782E95
:10320000692EA12FB02F2AE13AEC47E050E00E944E
:10321000C9276C01EE24FF24A72DB62D0E94C927D3
:103220004C01AA24BB24C114D104E104F10471F0BF
:10323000C501B4013AE0660F771F881F991F3A95C0
:10324000D1F7A70196010E94A72703C020E030E034
:10325000A901DA01C9010196A11DB11DB695A79575
:10326000979587958B399105A105B105A0F0843C10
:103270009105A105B105A0F0873E9105A105B10515
:10328000A0F085319140A105B105A0F0E0E0F0E0AB
:10329000A0E0B0E013C0E1E7FDE3A8E4B1E20EC0B6
:1032A000E0E3FBE5A7E3BAE209C0E9EBFDE2AFEE3C
:1032B000B8E104C0EAE9F9E1AFEDBFE0A70196018A
:1032C0000E94C9276B017C0130E8D31AE108F1089C
:1032D000DF01A50194010E94C927C61AD70AE80A8E
:1032E000F90A6701EE24FF248A859B85AC85BD859C
:1032F00051100BC09601281B390BC90137FF03C0C1
:10330000919581959109069704F1FF92EF92DF92D2
:10331000CF926F927F920F931F938CEC92E29F93C8
:103320008F9388811F928F9384E193E09F938F9373
:103330000E944623CA86DB86EC86FD868DB79EB743
:103340000E968DBF9EBF81E001C080E0DF91CF91DE
:103350001F910F91FF90EF90DF90CF90BF90AF90B3
:103360009F908F907F906F905F90089580E890E29B
:10337000089580E60C947222EF92FF920F931F93B0
:10338000CF93DF93483010F1142FEB017B0101E064
:10339000F7014081F2E0EF0EF11C602F80E60E9401
:1033A000CE220F5F0930A1F7183029F0488969E172
:1033B00080E60E94CE224FEF6CE080E6DF91CF9155
:1033C0001F910F91FF90EF900C94CE22DF91CF913F
:1033D0001F910F91FF90EF9008958DE890E208956E
:1033E0008DE10C9472224FE360E28DE10E94CE22C7
:1033F00048E064E28DE10E94CE2240E066E28DE189
:103400000C94CE227F928F929F92AF92BF92CF92D6
:10341000DF92EF92FF920F931F93CF93DF93EC0114
:10342000762E60E28DE10E9487228F3311F0CE016B
:10343000DADF68E28DE10E94BA226C016AE28DE176
:103440000E94BA227C016CE28DE10E94BA228C01BA
:1034500068E08DE10E94BA22B82EA92E6AE08DE1C3
:103460000E94BA22982E892E6CE08DE10E94BA2229
:1034700069857A854B855C852D853E8571101EC0DA
:103480006C197D0977FF03C07195619571096333EC
:103490007105A4F44E195F0957FF03C0519541957A
:1034A00051094333510554F4201B310B37FF03C03E
:1034B0003195219531092333310544F19F938F9341
:1034C0008F929F92AF92BF921F930F93FF92EF92B2
:1034D000DF92CF92EF81F88582818F9381818F93E4
:1034E00088811F928F9388E293E09F938F930E942D
:1034F0004623C986DA86EB86FC860D871E878DB744
:103500009EB742968DBF9EBF81E001C080E0DF91F3
:10351000CF911F910F91FF90EF90DF90CF90BF90D0
:10352000AF909F908F907F9008958AE990E20895E0
:10353000FB0130812181822F881F8827881F41E06D
:10354000480F832F922F97FF03C091958195910982
:103550008034910514F08FE390E09C012B5F3F4F86
:103560002B30310530F0880F991F880F991F482B99
:1035700001C040E060E084E60C94CE2284E6B2C74D
:1035800087EA90E2089540E869E183E60C94CE2250
:1035900083E6A8C7CF92DF92FF920F931F93CF933A
:1035A000DF93CDB7DEB72B97CDBFDEBF443008F435
:1035B00003C1F42E8B0142E060E083E6EFD7FE0109
:1035C00031968AE0DF011D928A95E9F7F801308192
:1035D00081E037FF80E0D80112962C9127FD02C0D0
:1035E00040E001C042E0482BF801948197FD02C001
:1035F00080E001C084E0542F582BD80116968C919E
:1036000087FD02C040E001C048E0452B498341E00E
:1036100036FF40E026FD02C050E001C052E0452BDD
:1036200096FD02C050E001C054E0542B86FD02C05C
:1036300040E001C048E0452B4A8341E035FF40E0CF
:1036400025FD02C050E001C052E0452B95FD02C0AF
:1036500050E001C054E0542B85FD02C040E001C0A1
:1036600048E0452B4B8341E034FF40E024FD02C09D
:1036700050E001C052E0452B94FD02C050E001C073
:1036800054E0542B84FD02C040E001C048E0452BCB
:103690004C8341E033FF40E023FD02C050E001C015
:1036A00052E0452B93FD02C050E001C054E0542B82
:1036B00083FD02C040E001C048E0452B4D8341E05E
:1036C00032FF40E022FD02C050E001C052E0452B35
:1036D00092FD02C050E001C054E0542B82FD02C0B4
:1036E00040E001C048E0452B4E8341E031FF40E01F
:1036F00021FD02C050E001C052E0452B91FD02C007
:1037000050E001C054E0542B81FD02C040E001C0F4
:1037100048E0452B4F8341E030FF40E020FD02C0F0
:1037200020E001C022E0422B90FD02C090E001C0E9
:1037300094E0942B80FD02C080E001C088E0892BDA
:103740008887B4E0FB1699F0F80180859185019790
:1037500011F480E18987F5E0FF1649F0D8011A9647
:103760008D919C911B97019711F480E28A87FE014D
:1037700031966F0191E0D6014D916D01692F83E67D
:103780009B870CD79B859F5F9B30A9F7B6E0BF1541
:1037900028F4F801448569E183E600D74FEF6CE037
:1037A00083E62B96CDBFDEBFDF91CF911F910F91A6
:1037B000FF90DF90CF90F2C62B96CDBFDEBFDF919A
:1037C000CF911F910F91FF90DF90CF90089584EBE0
:1037D00090E20895FF920F931F93CF93DF938C0194
:1037E000F62E60E086E1B0D6EC01D80119962D9155
:1037F0003C911A978E3F934011F4CFEFD3E0F11034
:1038000016C0C9018C1B9D0B97FF03C09195819534
:103810009109059764F4209719F4232B41F424C0EF
:10382000CF3FE3E0DE0701F52F3F3340E9F0DF93C0
:10383000CF93D8011796ED91FC91189782818F93C1
:1038400081818F938C911F928F9384E493E09F9357
:103850008F931CD7F801C187D2878DB79EB7089682
:103860008DBF9EBF81E001C080E0DF91CF911F91AD
:103870000F91FF90089586E135C61F93CF93DF9394
:10388000EB01142F488162E086E188D6888180FFB1
:103890000CC0163051F4229613E048812296612F15
:1038A00086E17CD61F5F1830C1F7DF91CF911F9161
:1038B000089581EC90E20895EF92FF920F931F9389
:1038C000CF93DF93CDB7DEB76097CDBFDEBF8B015F
:1038D000942F41E060E084E5988B60D64FEF63E180
:1038E00084E55CD64FEF64E184E558D64FEF65E19F
:1038F00084E554D698899330D1F4D801FC9012967F
:10390000EC90129714960C9111E04E2D612F84E5E6
:1039100045D661E0610F4F2D84E540D662E0610F2E
:10392000402F84E53BD61D5F103179F727C09F30CB
:1039300029F5AE014F5F5F4FFA0111929A95E9F7B1
:10394000F8018E010D5F1F4FCF014E969801225056
:1039500031096281D9016C932F5F3F4F6081D9019A
:103960006C932481D8012C9336960D5F1F4FE81776
:10397000F90761F72FE061E084E529D640E066E1D0
:1039800084E50CD66096CDBFDEBFDF91CF911F914D
:103990000F91FF90EF90089584E5A4C58EEC90E21E
:1039A00008958CE29FC580E095E3ACE0B0E001971C
:1039B000A109B109E1F7089540E060E08CE2EED59D
:1039C00040E360E28CE2EAD540E464E48CE2E6D5D0
:1039D0004CE361E28CE2E2D548E064E28CE2DED5C1
:1039E00040E66FE18CE2DAD54CE362E78CE2D6D5B3
:1039F00040E068E28CE2D2D540E06AE28CE2CED5CB
:103A000040EC63E98CE2CAD542E064E98CE2C6D5B9
:103A1000CADF4FEF66E28CE2C1C57F928F929F9220
:103A2000AF92BF92CF92DF92EF92FF920F931F93CC
:103A3000CF93DF93EC01962E61E28CE268D58C3354
:103A400011F0CE01B9DF60E08CE261D5E82E80FD97
:103A500004C0F12C91103CC05AC063E08CE257D5F1
:103A60008C73882E6E0189E0C80ED11C02E010E034
:103A7000F12CAA24A394B12C9501002E01C0220F91
:103A80000A94EAF72821A1F060E1600F8CE23FD5AB
:103A9000782E60E3600F8CE23AD591E078160CF452
:103AA00090E0F6018081981719F09083FF24F39439
:103AB0000F5F1F4FFFEFCF1ADF0A06301105E1F647
:103AC0004E2D4E7F60E08CE269D5FF2009F4C1CF16
:103AD00089851F928F938A851F928F938B851F9262
:103AE0008F938C851F928F93EF81F88582818F93BE
:103AF00081818F9388811F928F9381E593E09F93BB
:103B00008F93C4D58DB79EB70E968DBF9EBF8F2D58
:103B1000DF91CF911F910F91FF90EF90DF90CF90A9
:103B2000BF90AF909F908F907F9008958BED90E223
:103B3000089549E464EF87E731C50F931F93CF934E
:103B4000C82F682F87E700D58C0162E06C0F87E7EC
:103B5000DED4A80160E070E094E0440F551F661FBA
:103B6000771F9A95D1F782958F708A019B01080F74
:103B7000111D211D311DC901B801CF911F910F9158
:103B8000089587E7AFC42F923F924F925F926F9252
:103B90007F928F929F92AF92BF92CF92DF92EF92DD
:103BA000FF920F931F93CF93DF93CDB7DEB7E497C8
:103BB000CDBFDEBF8E879F876CA7DC0119962D9144
:103BC0003D914D915C911C972A8B3B8B4C8B5D8B6F
:103BD0001D962D913D914D915C9150972E8B3F8B71
:103BE000488F598F63EF87E792D483FDBFC28AEF76
:103BF000A4DF6B017C0168E887E7BCD44C01A12CF1
:103C0000B12CB701A60133E0759567955795479597
:103C10003A95D1F7D501C401880F991FAA1FBB1F80
:103C20009A01AB01281B390B4A0B5B0B6AE887E74B
:103C300028AB39AB4AAB5BAB9DD48C01F4E0F59477
:103C4000E794D794C794FA95D1F7C818D908EA0829
:103C5000FB086CE887E78ED4FC01D80128A939A9B4
:103C60004AA95BA90E94D3274B015C01ABE0B59444
:103C7000A79497948794AA95D1F7A7019601C701B5
:103C8000B6010E9484279B01AC01BCE05595479585
:103C900037952795BA95D1F7DF010E94D327DC012C
:103CA000CB011EE0B595A795979587951A95D1F705
:103CB000A5019401280F391F4A1F5B1F2A873B87E4
:103CC0004C875D8787EF39DF68A779A78AA79BA70D
:103CD000CA84DB84EC84FD84FF0CCC08DC2C7601E8
:103CE0002A853B854C855D856C2D7C2D8C2D9C2DEE
:103CF000345F4140510961097109810991092983A2
:103D00003A834B835C836D837E838F839CAB5901A5
:103D10006A017B018C010E94D92728A339A34AA3F9
:103D20005BA36CA37DA38EA39FA368E987E722D43E
:103D30008DA7998B66E987E71DD48EA79E8F64E9CE
:103D400087E718D48FA79F8F62E987E713D4282EBF
:103D50009A8F60E987E70ED4A82E192F110F110B47
:103D6000B92EC12ED12EE12EF12E012F29813A81BB
:103D70004B815C816D817E818F819CA90E94D927B6
:103D80000CE00E94F428322E432E542E652E762EFF
:103D9000872E982E988B6EE887E7ECD388879987D3
:103DA000A22C1A8D110F110BBA8CC12ED12EE12E1F
:103DB000F12E012F28A139A14AA15BA16CA17DA1FF
:103DC0008EA19FA10E94D92708E00E940D29A32C53
:103DD000B42CC52CD62CE72CF82C092D18890E9460
:103DE0002B2970588F4F9F4FA885B9855D01C12C35
:103DF000D12CE12CF12C00E010E00E94D92701E247
:103E00000E940D292887388B4A8F5B8F6C8F7D8F9E
:103E10001C01A0E00E943D2909F48CC1ADA41989C0
:103E2000110F110BB988C12ED12EE12EF12E012FC9
:103E300028A139A14AA15BA16CA17DA18EA19FA15E
:103E40000E94D92729013A014B01898B98A3AEA47E
:103E50001E8D110F110BBE8CC12ED12EE12EF12E15
:103E6000012F29813A814B815C816D817E818F8117
:103E70009CA90E94D92701E10E94F42859016A01F6
:103E80007B018C019201A301B401898998A10E9450
:103E90002B2929833A832A013B014C0180E090E0E1
:103EA000A0E1B0E028A539A54AA55BA5821B930B2C
:103EB000A40BB50B6C017D01FF0CCC08DC2C76014A
:103EC0009C01AD016C2D7C2D8C2D9C2D0FE10E9451
:103ED000F4282D833E83B42FA52FF62FE72F8B8355
:103EE0009C832FA59F8D990F990B3F8D492F592F9B
:103EF000692F792F892F03E20E94F42859016A0162
:103F00007B018C0129813A81A201B301C4010E9485
:103F10002B2959016A017B018C012D813E814B2F98
:103F20005A2F6F2F7E2F8B819C810E94342949014B
:103F3000642E552EB62FA72FF82FE92F03E00E94ED
:103F4000F4285401C62CD52CEB2EFA2E0F2F1E2F41
:103F50000E94342959016A017B01782E192F03E050
:103F60000E94F428072D0E94342903E00E94F428BF
:103F70005401C62CD52CEB2EFA2E0F2F1E2F0E948B
:103F8000342902E00E94F4280F2F0E94342901E016
:103F90000E94F4280F2F0E943429A884B888CA8C64
:103FA000DB8CEC8CFD8C81010E942C282A8F3983BC
:103FB0004A835B836C837D838E83292E6EE987E73A
:103FC000D9D2182F9F832A8D39814A815B816C81D8
:103FD0007D818E81922D0DE00E940D29322E432E7F
:103FE000542E652E762E872E982E998B6CE987E7B6
:103FF000C1D2888B9887212F9F81990F990BA32C71
:10400000B42CC52CD62CE72CF82C092D19893F810E
:10401000492F592F692F792F892FCBD7CAD709E17B
:104020000E940D2959016A017B018C012A8D398179
:104030004A815B816C817D818E81922D0E942B292A
:10404000322E432E542E652E762E872E982E9F8349
:1040500028899885990F990BAA8CB980CA80DB8032
:10406000EC80FD800E81122D3885492F592F692F44
:10407000792F892F9ED703E10E940D2959016A01EA
:104080007B018C01232D342D452D562D672D782D48
:10409000892D9F810E942B2908E00E940D2929016A
:1040A0003A014B01382E292E6AE987E763D29C0139
:1040B000932F990F990B492F592F692F792F892FFA
:1040C00004E00E94F42859016A017B018C019201ED
:1040D000A301B401832D922D0E942B29122FE32ED0
:1040E000D42EB52FF62FE72FF82E092FA0E00E942F
:1040F0003D2984F421503F4F4F4F5F4F6F4F7F4F0B
:104100008F4F9F4F122FE32ED42EB52FF62FE72F70
:10411000F82E092F212F3E2D4D2D5B2F6F2F7E2F37
:104120008F2D902F08E00E940D29C22ED32EE42E51
:10413000F52E03C0C12CD12C7601A5E0B0E02A8574
:104140003B854C855D8525D74B015C0130E8830EAE
:10415000911CA11CB11C892C9A2CAB2CBB24A7FC54
:10416000BA9449E464EF87E719D208C0CE88DF88A3
:10417000E88CF98C8A889B88AC88BD884CA5411155
:1041800018C0C401AA89BB898A1B9B0B97FF03C077
:10419000919581959109069764F4C601EE89FF898E
:1041A0008E1B9F0B97FF03C0919581959109C39733
:1041B00044F1FF92EF92DF92CF92BF92AF929F9223
:1041C0008F92AE85BF851796ED91FC9118978281ED
:1041D0008F9381818F938C911F928F9387E693E0C9
:1041E0009F938F9353D2EE85FF8581869286A38617
:1041F000B486C586D686E786F08ACDBFDEBF81E06D
:1042000001C080E0E496CDBFDEBFDF91CF911F916A
:104210000F91FF90EF90DF90CF90BF90AF909F9065
:104220008F907F906F905F904F903F902F90089568
:1042300088EE90E20895E091622AF091632A81E08D
:1042400090E09C010090612A02C0220F331F0A9463
:10425000E2F72683218328E32A95F1F7E091642A87
:10426000F091652A0090662A02C0880F991F0A946F
:10427000E2F78683818388E38A95F1F70895E091D8
:10428000642AF091652A81E090E09C010090662A02
:1042900002C0220F331F0A94E2F7228328E32A95F3
:1042A000F1F7E091622AF091632A0090612A02C03E
:1042B000880F991F0A94E2F7828388E38A95F1F7C1
:1042C0000895FC0141E050E002C0440F551F6A957B
:1042D000E2F7428390E088E38A95F1F79F5F2085BB
:1042E00030E024233523232B19F49730A1F702C0A3
:1042F000973019F482E08093602A0895E091622A51
:10430000F091632A81E090E09C010090612A02C054
:10431000220F331F0A94E2F7228328E32A95F1F74C
:10432000E091642AF091652A0090662A02C0880F05
:10433000991F0A94E2F7828388E38A95F1F7E09166
:10434000622AF091632A808590E00090612A02C081
:10435000959587950A94E2F780FF02C084E001C03A
:1043600083E08093602AE091642AF091652A81E0DD
:1043700090E09C010090662A02C0220F331F0A942D
:10438000E2F72683218328E32A95F1F7E091622A58
:10439000F091632A0090612A02C0880F991F0A9445
:1043A000E2F78683818388E38A95F1F7089548E0F0
:1043B00050E021E030E0E091622AF091632A909190
:1043C000612AB90101C0660F9A95EAF787FF02C01A
:1043D000628302C06683618398E39A95F1F7E09166
:1043E000642AF091652AB9010090662A02C0660F1E
:1043F000771F0A94E2F7628398E39A95F1F7E091C8
:10440000642AF091652AB9010090662A02C0660FFD
:10441000771F0A94E2F76683618398E39A95F1F730
:10442000880F4150510939F669CFEF92FF920F93EF
:104430001F93CF93E091622AF091632A81E090E08C
:104440000090612A02C0880F991F0A94E2F78283C4
:1044500008E010E0C0E0EE24E394F12C6091662ABD
:104460008091642A9091652A2CDF88E38A95F1F780
:10447000E091622AF091632A208530E00090612A61
:1044800002C0359527950A94E2F721703327CC0FA7
:10449000C22BE091642AF091652AC7010090662A38
:1044A00002C0880F991F0A94E2F78683818388E30C
:1044B0008A95F1F70150110989F620DF8C2FCF91F1
:1044C0001F910F91FF90EF9008958093622A90932F
:1044D000632A6093612A4093642A5093652A20934B
:1044E000662A0895CF93DF931F92CDB7DEB78983F5
:1044F000A2DE8981880F5BDFC2DE81E09091602AB5
:10450000933009F080E00F90DF91CF9108951F93D1
:10451000CF93DF931F92CDB7DEB7182F110F6983AA
:104520008ADE812F44DF6981862F41DFA8DE83DEAA
:10453000812F81603CDF79DF8983A1DE89810F9043
:10454000DF91CF911F9108951F93CF93DF93182F81
:10455000D62FDDDFC82F61E06D0F812FD8DF2C2F24
:1045600030E0322F2227A901482BCA01DF91CF91D9
:104570001F9108951F93CF93DF93182FC62FC7DF86
:10458000D82F61E06C0F812FC2DF2D2F30E0A90101
:10459000582BCA01DF91CF911F910895CF93DF93DC
:1045A00000D01F92CDB7DEB74B836A83898343DE89
:1045B0008981880FFCDE6A81862FF9DE4B81842F8A
:1045C000F6DE2396CDBFDEBFDF91CF9158CECF92DE
:1045D000DF92EF92FF920F931F93CF93DF9300D060
:1045E0001F92CDB7DEB77A012B836A83898323DEDE
:1045F0008981880FDCDE6A81862FD9DE87012B81D5
:10460000C22ED12CC8018E199F098C159D052CF442
:10461000F80181918F01CBDEF5CF2396CDBFDEBFB0
:10462000DF91CF911F910F91FF90EF90DF90CF908E
:1046300026CECF93C82F0E943F05882331F08C2FC0
:10464000CC0F990BCF910C948805CF910895EF92E0
:10465000FF921F93CF93DF931F92CDB7DEB7182F32
:1046600099830E943F059981882349F0E12EF92E14
:10467000F70181917F01882311F0DBDFF9CF0F90E3
:10468000DF91CF911F91FF90EF900895CF93DF932B
:10469000CDB7DEB70E943F05882359F0AE01495FD0
:1046A0005F4F6D817E8183EA95E267D683EA95E26A
:1046B000CEDFDF91CF910895CF93DF9300D0CDB7B8
:1046C000DEB720916D2A30916E2A2115310511F443
:1046D00021E73AE2CE010196821B930B0F900F90D7
:1046E000DF91CF9108958F929F92AF92BF92CF9218
:1046F000DF92EF92FF920F931F93CF93DF93C82F18
:104700008091352790913627A0913727B09138278F
:104710004091392750913A2760913B2770913C276F
:104720009A01AB01280F391F4A1F5B1F60E472E436
:104730008FE090E00CD4D22F132F042FF52EC4302D
:1047400061F4BADF9F938F938FEC93E09F938F93E5
:104750009DDF0F900F900F900F90AEDF9F938F9380
:104760008CEB93E09F938F9391DF6091352770914D
:1047700036278091372790913827FF920F931F9308
:10478000DF939F938F937F936F9328EE33E040E006
:1047900050E0DDD35F934F933F932F9380EA93E0F4
:1047A0009F938F9373DF82E993E09F938F936EDFE4
:1047B00008E617E28DB79EB744968DBF9EBF812C49
:1047C000912CD0E08BE8E82E83E0F82E9CE7C92EF0
:1047D00093E0D92E29E7A22E23E0B22E8C169D0657
:1047E0007CF59F928F92FF92EF9250DFD80117963F
:1047F000ED91FC9118970F900F900F900F903097BC
:1048000081F080811F928F9382818F9381818F931A
:10481000DF92CF923BDF0F900F900F900F900F9091
:104820000F909F928F92BF92AF9230DFBFEF8B1AA3
:104830009B0A015C1F4F0F900F900F900F90CECFEF
:10484000DF91CF911F910F91FF90EF90DF90CF906C
:10485000BF90AF909F908F9008959FB7F894A0E578
:10486000B0E016968C911697897F16968C931697C2
:10487000E0E6F0E080E885838BEB868316968C91EA
:104880001697846016968C938081816080839FBF89
:104890000895CF93DF9300D000D0CDB7DEB78FEF70
:1048A00080937000809371008093720080937300F6
:1048B00080937400809375008093760064E081E4B7
:1048C00090E09BD06CE170E082E08DD08C836DE154
:1048D00070E082E088D08B838B819C81019621F4EB
:1048E00080E493E28B839C838B819C8189839A8370
:1048F000809362008A81809363009FB7F8948091CF
:1049000050008260809350009FBF8091510081FFD2
:10491000FCCFA3DF61E080E490E06FD09FB7F89414
:10492000809150008E7F809350009FBF2496CDBF12
:10493000DEBFDF91CF9108959FB7F894E82FF0E0A4
:10494000E059FF4F60958081682360839FBF089581
:10495000CF93863011F0C0E001C0C8E180915100D2
:1049600081FD0DC09FB7F8948091500082608093C4
:1049700050009FBF8091510081FFFCCF6EDF6C2FF4
:10498000636084E490E039D060E480E0CF91D4CFDC
:10499000682F70E082E027C0CF93DF93EC0188E0BE
:1049A000F7DF888389E0F4DF89838AE0F1DF8A8397
:1049B0008BE0EEDF8B838CE0EBDF8C838DE0E8DF38
:1049C0008D8380E1E5DF8E8382E1E2DF8F8383E107
:1049D000DFDF888784E1DCDF898785E1D9DF8A87AB
:1049E000DF91CF9108954091CA01E62FF72F809370
:1049F000CA0184914093CA0108951BBEFC0128EDB1
:104A000024BF6083089508958091AF269091B026C9
:104A1000A091B126B091B226C296A11DB11D80937E
:104A2000AF269093B026A093B126B093B2260C94F3
:104A30002B020E949A139DEF88ED08B618BE84BF22
:104A40009093800008BE0E940B14D7E0D093A20080
:104A500078941092672A1092682A1092692A10920C
:104A60006A2A10926B2AC1E0C0936C2A12DFCBDF56
:104A70008FEF8093000680E180936006809164064A
:104A80008F7E8093640688E180937506D0938006BC
:104A9000C093860682E08093860684E08093860633
:104AA0000E94570680E098E00E94360D64E075E2AF
:104AB00080E098E00E94710D80910108887F8093CA
:104AC000010880EB94E0809326089093270880915A
:104AD00006088C7F80930608809106088360809387
:104AE000060880910008807F816080930008F12C87
:104AF000CDEFD3E0EE24E3940DED13E08091680652
:104B000085FD0BC08091B326811107C0DF93CF9341
:104B1000BDDDE092B3260F900F908091680685FF6F
:104B20000BC08091B326882339F01F930F93AEDD1D
:104B30001092B3260F900F908091B426882311F124
:104B40008090AF269090B026A090B126B090B2266B
:104B500085EB96E20E9451161092B4268091AF2602
:104B60009091B026A091B126B091B22688199909EA
:104B7000AA09BB098093392790933A27A0933B2732
:104B8000B0933C27F11002C00E941115F39480905D
:104B9000AF269090B026A090B126B090B22660913A
:104BA000AF267091B0268091B1269091B2260E94D6
:104BB00068158091AF269091B026A091B126B09152
:104BC000B22688199909AA09BB09809335279093C1
:104BD0003627A0933727B093382790CF089581E0E8
:104BE00008950895089508950F931F93CF93DF9329
:104BF000FC0180818D3231F4615021E030E04FEFD3
:104C00005FEF04C020E030E041E050E06330D1F1DC
:104C100048F4613009F45FC0623009F06CC080E094
:104C200090E045C06430A9F0653009F064C0DF0150
:104C3000A20FB31FAC910A2E000CBB0BD097C0E1A2
:104C4000D7E2AC9FC001AD9F900DBC9F900D112489
:104C500002C080E090E0DF01A20FB31FA60FB11DDC
:104C60001497AC910A2E000CBB0BD09708EE13E002
:104C7000A09FE001A19FD00DB09FD00D11248C0FFB
:104C80009D1F02C080E090E0DF01A20FB31FA60FBE
:104C9000B11D1397AC910A2E000CBB0BD09774E694
:104CA0007A9FE0017B9FD00D11248C0F9D1FDF01A7
:104CB000A20FB31FA60FB11D1297AC910A2E000CC4
:104CC000BB0BD0977AE07A9FE0017B9FD00D112437
:104CD0008C0F9D1F02C080E090E0E20FF31FE60FF3
:104CE000F11D31972081022E000C330B2053310926
:104CF000820F931F02C080E090E09C01249FC001BE
:104D0000259F900D349F900D1124DF91CF911F911D
:104D10000F9108955F926F927F928F929F92AF92C0
:104D2000BF92CF92DF92EF92FF920F931F93CF9398
:104D3000DF9389E0C82E01E09FE3B92E22E0A22E86
:104D4000C4EAD6E216E038E0932E44E2E42E46E2CE
:104D5000F42E50E8D52E0E94CB04882309F4C4C059
:104D60000E9410059091AE268D3009F041C092301E
:104D700021F56090AC267090AD268090AB2655242E
:104D80005394580C5092AB266091AA2684EA96E27E
:104D90002BDFF301E80DF11DE80DF11D858B968BDE
:104DA0001092AA26FE01812F11928A95E9F7F3014C
:104DB00085AD8F5F85AF56AE11C0993079F4809183
:104DC000B42681110BC0E4E2F6E2A5EBB6E28D2D2C
:104DD00001900D928A95E1F70093B4261092232654
:104DE000F7018D2D11928A95E9F71092AE26B3CF77
:104DF000E091232621E02E0F20932326F0E0EC5DA6
:104E0000F94D8083923089F58C3209F56091AA269C
:104E1000662301F16090AC268090AD267090AB26A1
:104E200081E0870D8093AB2684EA96E2DDDEE62DF5
:104E3000F82DE70DF11DE70DF11D858B968B109276
:104E4000AA26FE01812F11928A95E9F784CF80323C
:104E500009F481CFE091AA2691E09E0F9093AA26B3
:104E6000F0E0EC55F94D808376CF913051F522304A
:104E700031F4803209F46FCF9092AE266CCF23309C
:104E8000D9F780538930C0F790E00197B89EF001C0
:104E9000B99EF00D1124E859F84DE093AC26F0933B
:104EA000AD2687819085892B39F3A092AE2610928A
:104EB000AB261092AA26FE01812F11928A95E9F75E
:104EC0004ACF911148CF823739F4F89488ED84BFE6
:104ED00081E08093790008C0833719F40093AE26EF
:104EE0003ACFC092AE2637CFDF91CF911F910F916D
:104EF000FF90EF90DF90CF90BF90AF909F908F90FA
:104F00007F906F905F900895DB018F939F9341D0C6
:104F1000BF91AF91A29F800D911DA39F900DB29F55
:104F2000900D11240895AA1BBB1B51E107C0AA1FB5
:104F3000BB1FA617B70710F0A61BB70B881F991F3A
:104F40005A95A9F780959095BC01CD010895A1E2ED
:104F50001A2EAA1BBB1BFD010DC0AA1FBB1FEE1FF3
:104F6000FF1FA217B307E407F50720F0A21BB30B3E
:104F7000E40BF50B661F771F881F991F1A9469F7BA
:104F800060957095809590959B01AC01BD01CF0116
:104F900008957FD1A59F900DB49F900DA49F800D83
:104FA000911D11240895B7FFF4CFF3DF821B930BFB
:104FB0000895DF93CF931F930F939A9DF02D219F18
:104FC000F00D8B9DF00D8A9DE02DF10D039FF00DEE
:104FD000029FE00DF11D4E9DE00DF11D5E9DF00D57
:104FE0004F9DF00D7F936F93BF92AF925F934F935E
:104FF000D5014FD18B01AC01D7014BD1EB01E80FAB
:10500000F91FD6011FD02F913F91D60142D1C60F73
:10501000D71FE81FF91FAF91BF9114D02F913F9177
:1050200038D1C60FD71FE81FF91FD60132D1E60FBE
:10503000F71F9801BE01CF0111240F911F91CF914D
:10504000DF91089526D1460F571FC81FD91F08F4B6
:1050500031960895689401C0E894F92FF12B0AF075
:1050600027C0A0E0B0E0E6E3F8E293C0092E059483
:105070001AF479D0112392F4F0E80F26FFEFE094B0
:10508000F09400951095B094C094D094A194BF0A68
:10509000CF0ADF0AEF0AFF0A0F0B1F0B13D007FC22
:1050A00062D0CDB7DEB7ECE08DC0689401C0E89463
:1050B0008F929F92CF93DF9305D0DF91CF919F90F6
:1050C0008F90089588249924F401E401B0E49F931B
:1050D000AA279A158B049C04ED05FE05CF05D00781
:1050E000A10798F4AD2FDC2FCF2FFE2FE92D982CA0
:1050F000892E982F872F762F652F542F432F322FED
:105100002227B85031F7BF9127C01B2EBF91BB2774
:10511000220F331F441F551F661F771F881F991FBB
:10512000881C991CEE1FFF1FCC1FDD1FAA1FBB1F71
:105130008A149B04EC05FD05CE05DF05A007B10729
:1051400048F08A189B08EC09FD09CE09DF09A00B7D
:10515000B10B21601A94E1F62EF49401AF01BE0167
:10516000CD01000C089560957095809590953095CF
:105170004095509521953F4F4F4F5F4F6F4F7F4F59
:105180008F4F9F4F08952F923F924F925F926F9251
:105190007F928F929F92AF92BF92CF92DF92EF92C7
:1051A000FF920F931F93CF93DF93CDB7DEB7CA1B48
:1051B000DB0BCDBFDEBF09942A88398848885F841D
:1051C0006E847D848C849B84AA84B984C884DF80A7
:1051D000EE80FD800C811B81AA81B981CE0FD11D8B
:1051E000CDBFDEBFED0108950F93083090F0982FEA
:1051F000872F762F652F542F432F322F22270850C9
:10520000F4CF220F331F441F551F661F771F881FBF
:10521000991F0A95B2F70F91089597FB10F816940D
:1052200000080F93083098F00850232F342F452F93
:10523000562F672F782F892F902DF4CF05949795AF
:1052400087957795679557954795379527950A954B
:10525000AAF70F9108952A0D3B1D4C1D5D1D6E1D73
:105260007F1D801F911F08952A193B094C095D0974
:105270006E097F09800B910B08950024A7FD00940F
:105280002A1730054005500560057005800590051A
:105290000895A29FB001B39FC001A39F700D811D0F
:1052A0001124911DB29F700D811D1124911D08952F
:1052B000FC0188279927E89421912032E9F32930CD
:1052C00010F02E30C8F32B3239F02D3231F46894BF
:1052D00003C04BD0820F911D219120532A30C8F377
:1052E0001EF4909581959F4F0895FB01DC0102C04B
:1052F00001900D9241505040D8F70895FB01DC0118
:105300008D91019080190110D9F3990B0895FB013B
:10531000DC0101900D920020E1F70895FB01DC0112
:105320004150504048F001900D920020C9F701C053
:105330001D9241505040E0F70895FC01A081B181D9
:10534000AD01109681F03D91FB0101900316011013
:10535000E1F7C9F7002011F4D00102C01E921196A6
:10536000FC01A083B183CA0108957AE0979F902D34
:10537000879F802D910D11240895AEE0B0E0E2ECFE
:10538000F9E20FCF8C018EE08C8309831A838FEFB3
:105390009FE78D839E83CE01019609D02F813885AA
:1053A000F801E20FF31F10822E96E4E013CFACE079
:1053B000B0E0ECEDF9E2E7CE7C016B018A01FC0183
:1053C00016821782838181FFB0C1CE0101964C0104
:1053D000F7019381F60193FD859193FF81916F0110
:1053E000882309F49EC1853239F493FD859193FF9A
:1053F00081916F01853221F4B70190E0B1D1E8CFFE
:10540000512C312C20E02032A0F48B3269F030F4A2
:10541000803259F0833269F420612CC08D3239F02A
:10542000803339F4216026C02260246023C02860C4
:1054300021C027FD27C030ED380F3A3078F426FF21
:1054400006C0FAE05F9E300D1124532E13C08AE08F
:10545000389E300D1124332E20620CC08E3221F480
:1054600026FD5FC1206406C08C3611F4206802C09E
:10547000883641F4F60193FD859193FF81916F0188
:105480008111C1CF982F9F7D9554933028F40C5FE4
:105490001F4FFFE3F9830DC0833631F0833771F07E
:1054A000833509F057C021C0F801808189830E5FE0
:1054B0001F4F44244394512C540114C03801F2E08E
:1054C0006F0E711CF801A080B18026FF03C0652D0E
:1054D00070E002C06FEF7FEFC5012C8736D12C0141
:1054E00083012C852F77222E16C03801F2E06F0E33
:1054F000711CF801A080B18026FF03C0652D70E00B
:1055000002C06FEF7FEFC5012C8714D12C012C85D1
:105510002068222E830123FC19C0832D90E04816B9
:105520005906A0F4B70180E290E01AD13A94F5CF81
:10553000F50127FC859127FE81915F01B70190E07D
:105540000FD131103A94F1E04F1A5108411451042F
:1055500079F7DEC0843611F0893631F5F80127FF7E
:1055600007C060817181828193810C5F1F4F08C0E9
:1055700060817181072E000C880B990B0E5F1F4F05
:105580002F76722E97FF09C0909580957095619542
:105590007F4F8F4F9F4F2068722E2AE030E0A4018A
:1055A00017D1A82EA81843C0853729F42F7EB22E14
:1055B0002AE030E025C0F22FF97FBF2E8F36C1F0F0
:1055C00018F4883579F0ADC0803719F0883721F0AC
:1055D000A8C02F2F2061B22EB4FE0DC08B2D846089
:1055E000B82E09C024FF0AC09F2F9660B92E06C0AE
:1055F00028E030E005C020E130E002C020E132E0E8
:10560000F801B7FE07C060817181828193810C5FD0
:105610001F4F06C06081718180E090E00E5F1F4FD8
:10562000A401D6D0A82EA818FB2DFF777F2E76FEDA
:105630000BC0372D3E7FA51450F474FE0AC072FCD7
:1056400008C0372D3E7E05C0BA2C372D03C0BA2CBA
:1056500001C0B52C34FF0DC0FE01EA0DF11D8081A3
:10566000803311F4397E09C032FF06C0B394B3947D
:1056700004C0832F867809F0B39433FD12C030FF45
:1056800006C05A2CB31418F4530C5B18B32CB31483
:1056900060F4B70180E290E03C8762D0B3943C852F
:1056A000F6CFB31410F43B1801C0312C34FF11C0F5
:1056B000B70180E390E03C8753D03C8532FF16C0B1
:1056C00031FD03C088E790E002C088E590E0B701B3
:1056D0000CC0832F867851F031FF02C08BE201C0ED
:1056E00080E237FD8DE2B70190E03AD0A51430F4A6
:1056F000B70180E390E034D05A94F8CFAA94F40133
:10570000EA0DF11D8081B70190E02AD0A110F6CFFB
:10571000332009F45DCEB70180E290E021D03A94C5
:10572000F7CFF7018681978102C08FEF9FEF2C960C
:10573000E2E142CDFC010590615070400110D8F7C4
:10574000809590958E0F9F1F0895FC0161507040C9
:1057500001900110D8F7809590958E0F9F1F0895A6
:105760000F931F93CF93DF93FB01238121FD03C090
:105770008FEF9FEF28C022FF16C0468157812481FA
:1057800035814217530744F4A081B1819D012F5FF9
:105790003F4F208331838C93268137812F5F3F4F8A
:1057A0002683378310C0EB01092F182F0084F18561
:1057B000E02D0995892BE1F68E819F8101968E83DC
:1057C0009F83812F902FDF91CF911F910F9108958B
:1057D000FA01AA27283051F1203181F1E8946F9322
:1057E0006E7F6E5F7F4F8F4F9F4FAF4FB1E03ED0C8
:1057F000B4E03CD0670F781F891F9A1FA11D680F66
:10580000791F8A1F911DA11D6A0F711D811D911D98
:10581000A11D20D009F468943F912AE0269F11240D
:105820003019305D3193DEF6CF010895462F477071
:10583000405D4193B3E00FD0C9F7F6CF462F4F70CC
:10584000405D4A3318F0495D31FD4052419302D02A
:10585000A9F7EACFB4E0A6959795879577956795D0
:10586000BA95C9F700976105710508959B01AC01D0
:105870000A2E06945795479537952795BA95C9F7F7
:10588000620F731F841F951FA01D0895E0ECF1E0C7
:10589000A785A7FDFDCFA485A860A4876050704FA1
:1058A00024CDDC01A40FB51F4150504040F0CB0186
:1058B000840F951F2E9105D041505040D8F7089580
:1058C000262F2ED00080021611F004D001970197E8
:1058D0000895262FE0ECF1E0378537FDFDCF3485C4
:1058E000377F3487378531FF09C036E3328738ED9B
:1058F00034BF31E03387378537FDFDCF33E332875F
:10590000808391831282248325E3228728ED31E06E
:1059100024BF33870196089503D080819927089585
:10592000E0ECF1E0378537FDFDCF34853860348712
:0C593000FC01E050F04F0895F894FFCF08
:10593C00FFFFFFFFFFFFFFFF6E04C502BC02BE02AC
:10594C00AC03D102B602C403BE0200000003000087
:10595C00000000000000000000000000000000003B
:10596C000000000000000000466C6F74696C6C61F4
:10597C0020446F636B0050696D6F726F6E69204CC1
:10598C0074640000040309040829B72200005917A5
:10599C0056176317000015BE22E80300003D18EAF5
:1059AC0017401812C322E8030000C3186118000046
:1059BC0039CC220000CC18C918DB18000060D222A8
:1059CC0000000000B9190000BC191DD922E803F32E
:1059DC0019F019021A000064E02200000000BE1A3F
:1059EC000000981A63E6220000C31AC81A0000CA05
:1059FC001A16ED22E80300003B1CEA1B3D1C54F474
:105A0C002200000000CC1C00005C1C2CFC22E803D3
:105A1C00DC1CD11C0D1D00007702231027991DC121
:105A2C001DC31D00004821FB2000000421FF201293
:105A3C00200820000902430002010080FA0904003A
:105A4C0000010202010005240010010424020205D9
:105A5C002406000105240103010705820340001000
:105A6C0009040100020A0000000705810240000041
:105A7C000705020240000000120100020200004073
:105A8C00D016C3080001010200018C99A5B1BDC755
:105A9C00D2DBE3EBF1F7FBFDFFFAF5F0E6D2B496BF
:105AAC00B4D2E6F0F5FAFFFFFCF9F4EFE8E0D7CD5D
:105ABC00C3B8ACA094877A6D6155493E3329201840
:105ACC001A232C36414C5864717D000000000000F4
